:020000040000FA
:0600000000F093EF00F098
:10000800FFFF6B82FACF51F0FBCF52F0F2A210D073
:1000180001D80CD0FFFF0500FA6E2750FD6E28505E
:10002800FE6EF850FF6EFA501200FFFFFFFFF292CB
:10003800FFFFF0A010D001D80CD0FFFF0500FA6E2A
:100048002550FD6E2650FE6EF850FF6EFA501200D5
:10005800FFFFFFFFF090FFFFF0A210D001D80CD0F7
:10006800FFFF0500FA6E2350FD6E2450FE6EF85017
:10007800FF6EFA501200FFFFFFFFF092FFFFF2B091
:10008800F290F2A414D001D80CD0FFFF0500FA6E4C
:100098001F50FD6E2050FE6EF850FF6EFA50120091
:1000A800FFFFFFFF17C0D6FF1850D76EF294FFFF6F
:1000B8009EA014D001D80CD0FFFF0500FA6E1D5089
:1000C800FD6E1E50FE6EF850FF6EFA501200FFFFD4
:1000D800FFFF15C0CEFF1650CF6E9E90FFFFA1A266
:1000E80014D001D80CD0FFFF0500FA6E1B50FD6E2E
:1000F8001C50FE6EF850FF6EFA501200FFFFFFFF13
:1001080013C0B2FF1450B36EA192FFFF9EB49E9429
:1001180052C0FBFF51C0FAFF6B921100FFFFF3EFD3
:1001280005F0FFFF4A0E586E000E596E70EC06F08F
:10013800430E586E000E596E70EC06F03C0E586E69
:10014800000E596E70EC06F08E0E586E000E596E49
:1001580070EC06F0870E586E000E596E70EC06F0C3
:10016800800E586E000E596E70EC06F0B3EC06F077
:10017800860E536E0E0E546EA7EC07F0700E536E7B
:100188000E0E546EA0EC07F05A0E536E0E0E546EFF
:1001980099EC07F0000E536E010E546E070E556E63
:1001A800000E576E0B0E566E000EF6EC03F0B6EC12
:1001B80007F0FC0E576E0E0E586EF3EC06F0000EAC
:1001C800536E000E546E000E556E0B0E576EEA0EEF
:1001D800566E000EE5EC04F0B2EC07F0EA0E576E2E
:1001E8000E0E586EE6EC06F0000E536E000E546EBE
:1001F800000E556E0B0E576EEA0E566E000E2FEC63
:1002080005F0AEEC07F0D80E576E0E0E586ED9EC0E
:1002180006F000EC07F0250E626E800E616E56EC5B
:1002280006F0FFFF000EBAEC05F053C09DF054C075
:100238009EF09DC053F09EC054F0000E566E320ED4
:10024800556E8AEC06F053C059F054C05AF0030EAC
:100258005C6E5B6826EC06F059500A0F0001A76F28
:10026800A7510D0DF3CF63F0F4CF64F063C095F0A0
:1002780064C096F0000E96BFFF0E976F986F996F47
:100288009A6F9B6F9C6FA7510E0DF3CF63F0F4CF5D
:1002980064F063C09FF064C0A0F0000EA0BFFF0E22
:1002A800A16FA26FA36FA46FA56FA66F0950636EAD
:1002B8000A50646E0B50656E0C50666E676A686A09
:1002C800696A6A6A9551631829E19651641826E1AA
:1002D8009751651823E19851661820E199516718DC
:1002E8001DE19A5168181AE19B51691817E19C5150
:1002F8006A18D8A413D0B6EC07F0000E096E000EE9
:100308000A6E000E0B6E000E0C6E2B50D8A402D095
:10031800010E02D0FFFF000EFFFF2B6EFFFF0550FE
:10032800636E0650646E0750656E0850666E676AA5
:10033800686A696A6A6A00019F51631829E1A051D5
:10034800641826E1A151651823E1A251661820E13D
:10035800A35167181DE1A45168181AE1A55169183D
:1003680017E1A6516A18D8A413D0B2EC07F0000E12
:10037800056E000E066E000E076E000E086E2A50FF
:10038800D8A402D0010E02D0FFFF000EFFFF2A6E94
:10039800FFFF0150636E0250646E0350656E045097
:1003A800666E676A686A696A6A6A00019F516318BB
:1003B80029E1A051641826E1A151651823E1A25151
:1003C800661820E1A35167181DE1A45168181AE1C5
:1003D800A551691817E1A6516A18D8A413D0AEEC34
:1003E80007F0000E016E000E026E000E036E000E86
:1003F800046E2950D8A402D0010E02D0FFFF000ECF
:10040800FFFF296EFFFF4A0E586E000E596E2BC073
:100418005AF09FEC06F0430E586E000E596E2AC033
:100428005AF09FEC06F03C0E586E000E596E29C02B
:100438005AF09FEC06F00001A7514DEC04F02F0E86
:1004480063EC07F00A0E636EBE0EFFFFE82EFDD7C1
:10045800632EFBD700D0E5D6FFFF576E90D0FFFF85
:100468005750D8B40FD054C055F0010E566E552AC7
:1004780003D0FFFFD8905636FFFF552EFAD75650B7
:10048800801292D0FFFF54C055F0010E566E552AC7
:1004980003D0FFFFD8905636FFFF552EFAD7565097
:1004A800FF0A801681D0FFFF5750D8B40FD054C030
:1004B80055F0010E566E552A03D0FFFFD8905636D8
:1004C800FFFF552EFAD7565081126ED0FFFF54C049
:1004D80055F0010E566E552A03D0FFFFD8905636B8
:1004E800FFFF552EFAD75650FF0A81165DD0FFFF41
:1004F8005750D8B40FD054C055F0010E566E552A37
:1005080003D0FFFFD8905636FFFF552EFAD7565026
:1005180082124AD0FFFF54C055F0010E566E552A7C
:1005280003D0FFFFD8905636FFFF552EFAD7565006
:10053800FF0A821639D0FFFF5750D8B40FD054C0E5
:1005480055F0010E566E552A03D0FFFFD890563647
:10055800FFFF552EFAD75650831226D0FFFF54C0FE
:1005680055F0010E566E552A03D0FFFFD890563627
:10057800FFFF552EFAD75650FF0A831615D0FFFFF6
:100588005350556E566A5650000AD8A40DD055508F
:10059800410AD8B464D7030AD8B485D7010AD8B4B5
:1005A800A6D7070AD8B4C7D7FFFF1200FFFFFFFF7F
:1005B800576E90D0FFFF5750D8B40FD054C055F0A5
:1005C800010E566E552A03D0FFFFD8905636FFFF0E
:1005D800552EFAD75650921292D0FFFF54C055F0BC
:1005E800010E566E552A03D0FFFFD8905636FFFFEE
:1005F800552EFAD75650FF0A921681D0FFFF575052
:10060800D8B40FD054C055F0010E566E552A03D0F9
:10061800FFFFD8905636FFFF552EFAD75650931243
:100628006ED0FFFF54C055F0010E566E552A03D008
:10063800FFFFD8905636FFFF552EFAD75650FF0ABF
:1006480093165DD0FFFF5750D8B40FD054C055F063
:10065800010E566E552A03D0FFFFD8905636FFFF7D
:10066800552EFAD7565094124AD0FFFF54C055F071
:10067800010E566E552A03D0FFFFD8905636FFFF5D
:10068800552EFAD75650FF0A941639D0FFFF575007
:10069800D8B40FD054C055F0010E566E552A03D069
:1006A800FFFFD8905636FFFF552EFAD756509512B1
:1006B80026D0FFFF54C055F0010E566E552A03D0C0
:1006C800FFFFD8905636FFFF552EFAD75650FF0A2F
:1006D800951615D0FFFF5350556E566A5650000AAE
:1006E800D8A40DD05550410AD8B464D7030AD8B459
:1006F80085D7010AD8B4A6D7070AD8B4C7D7FFFF49
:100708001200FFFFFFFF000E5C6E5AAE0AD05A1EA1
:10071800591E581E576C000E582259225A22010E93
:100728005C6EFFFF56AE0AD0561E551E541E536C03
:10073800000E542255225622010E5C1AFFFF000EAD
:100748005D6E000E5E6E000E5F6E000E606E57509E
:10075800581059105A10D8B42ED0010E5B6E07D01D
:10076800FFFFD8905736583659365A365B2AFFFF5E
:100778005AAEF6D7FFFFD8905D365E365F366036E4
:100788005750535C58505458595055585A50565809
:10079800D8A009D05750535E5850545A5950555AFA
:1007A8005A50565A5D80FFFFD8905A325932583203
:1007B80057325B2EDFD7FFFF5C50D8B408D0601EDD
:1007C8005F1E5E1E5D6C000E5E225F226022FFFFD0
:1007D8005DC053F05EC054F05FC055F060C056F085
:1007E8001200FFFFFFFF5A6E06D0FFFFD58A19D00F
:1007F800FFFFD59A16D0FFFF5A50586E596A5950C4
:10080800000AD8A40ED05850000AD8B4F1D7010A6B
:10081800D8B4EBD706D0FFFFD58C12D0FFFFD59CFC
:100828000FD0FFFF5350586E596A5950000AD8A488
:1008380007D05850000AD8B4EED7010AD8B4EED77A
:10084800FFFFD59806D0FFFFD58612D0FFFFD596BB
:100858000FD0FFFF5450586E596A5950000AD8A457
:1008680007D05850000AD8B4EED7010AD8B4EED74A
:10087800FFFFD5505518F80B5518D56E56C011F016
:1008880057C012F011C0D6FF1250D76ED58E120085
:10089800FFFFFFFF5B6E5BC05CF0000E606EFFFF4A
:1008A8005D0E6024D96EDA6A000EDA225CC053F05D
:1008B800546A000E566E0A0E556E78EC05F05350C9
:1008C800DF6E5CC053F0546A000E566E0A0E556E09
:1008D80099EC04F053505C6E602A020E6064DFD716
:1008E8005F50D8A412D05E50D8A405D05D50300F08
:1008F80063EC07F017D0FFFF5E50300F63EC07F092
:100908005D50300F63EC07F00DD0FFFF5F50300FE4
:1009180063EC07F05E50300F63EC07F05D50300F6A
:1009280063EC07F0FFFF1200FFFFFFFF000E586E99
:1009380056AE06D0556C561ED8B0562A010E586EC3
:10094800FFFF54AE06D0536C541ED8B0542A010E83
:10095800581AFFFF000E5A6E000E596E5550561069
:10096800D8B420D0010E576E05D0FFFFD890553669
:100978005636572AFFFF56AEF8D7FFFFD89059369C
:100988005A365550535C56505458D8A005D0555037
:10099800535E5650545A5980FFFFD89056325532FC
:1009A800572EEBD7FFFF5850D8B404D0596C5A1EB5
:1009B800D8B05A2AFFFF59C053F05AC054F0120059
:1009C800FFFFFFFF5A6E06D0FFFFCD8212D0FFFF58
:1009D800CD920FD0FFFF5A50586E596A5950000AED
:1009E800D8A407D05850000AD8B4F1D7010AD8B40F
:1009F800EBD7FFFF53B002D0CD9E01D0CD8E0ED0E5
:100A0800FFFFCF0ECD1619D0FFFF55C058F0583A4A
:100A1800CD505818CF0B5818CD6E0FD0FFFF54503B
:100A2800586E596A5950000AD8A407D05850000A7D
:100A3800D8B4E6D7010AD8B4E7D7FFFFCD969E9081
:100A480056C00FF057C010F00FC0CEFF1050CF6E39
:100A5800CD801200FFFFFFFF5A6E06D0FFFFB18264
:100A680012D0FFFFB1920FD0FFFF5A50586E596A4B
:100A78005950000AD8A407D05850000AD8B4F1D762
:100A8800010AD8B4EBD7FFFF53B002D0B19E01D012
:100A9800B18E0ED0FFFFCF0EB11619D0FFFF55C093
:100AA80058F0583AB1505818CF0B5818B16E0FD0AB
:100AB800FFFF5450586E596A5950000AD8A407D0FD
:100AC8005850000AD8B4E6D7010AD8B4E7D7FFFFD0
:100AD800A19256C00DF057C00EF00DC0B2FF0E50D7
:100AE800B36EB1801200FFFFFFFF000E586E54AEC8
:100AF80006D0536C541ED8B0542A010E586EFFFF0E
:100B080056AE04D0556C561ED8B0562AFFFF555025
:100B18005610D8B41CD0010E576E05D0FFFFD890E0
:100B280055365636572AFFFF56AEF8D7FFFF5550B1
:100B3800535C56505458D8A004D05550535E565064
:100B4800545AFFFFD89056325532572EEFD7FFFF31
:100B58005850D8B404D0536C541ED8B0542AFFFF50
:100B680053C053F054C054F01200FFFFFFFF596EFA
:100B780059C055F0554655465546C2505518C70BED
:100B88005518C26E59C055F0010E566E552A03D03D
:100B9800FFFFD8905636FFFF552EFAD756509212BF
:100BA800020E556EF20EFFFFE82EFDD7552EFBD72D
:100BB80000D0C284FFFF9EACFDD7C350C4CF55F010
:100BC800566A55C056F0556A5510576E5650586EAD
:100BD8009E9C57C053F058C054F01200FFFF9C0E63
:100BE800F66E0E0EF76E000EF86E00EE80F010EE48
:100BF80015F00900F5CFEEFFE550E150FAE18C0E53
:100C0800F66E0D0EF76E000EF86E00EE2CF010EE7C
:100C180025F00900F5CFEEFFE550E150FAE100EECE
:100C2800A8F0080EEE6AE806FDE100EE01F02B0ED2
:100C3800EE6AE806FDE16B906B92000EF86E00011B
:100C480095EF00F0FFFF000E5F6E000E5E6E5B50CA
:100C58005C10D8B420D0010E5D6E05D0FFFFD8908F
:100C68005B365C365D2AFFFF5CAEF8D7FFFFD89095
:100C78005E365F365B50595C5C505A58D8A005D038
:100C88005B50595E5C505A5A5E80FFFFD8905C32C8
:100C98005B325D2EEBD7FFFF5EC059F05FC05AF0A4
:100CA8001200FFFFFFFFAC84900E536ED00E546EFF
:100CB800030E556E000E566E61C057F062C058F0B4
:100CC800596A5A6A86EC03F05304AF6EAC98AB8E3F
:100CD800949CAC8A1200FFFFFFFF58C0D9FF59C08F
:100CE800DAFFDF50536E20EE01F05850D9265950E4
:100CF800DA22DF50546E20EE02F05850D9265950AF
:100D0800DA22DF50DBEC02F01200FFFFFFFF535046
:100D18005502F3CF57F0F4CF58F053505602F35022
:100D2800582654505502F350582657C053F058C00F
:100D380054F01200FFFFFFFF58C0D9FF59C0DAFF77
:100D4800DF50536E20EE01F05850D9265950DA2260
:100D5800DF50546E5A5030EC02F01200FFFFFFFFD4
:100D6800F28EF28CF288F086F088F18CF18AF188A4
:100D7800F296F28A9E909D809F90A192A082A29264
:100D88001200FFFF950F830F940F820F930F810FAF
:100D9800920F800F44020000000000440100000090
:090DA800000044000000000000FE
:100DB200FFFF57C053F058C054F00DC055F00EC09D
:100DC20056F00CEC07F01200FFFFFFFF57C053F084
:100DD20058C054F00FC055F010C056F017EC07F091
:100DE2001200FFFFFFFF57C053F058C054F011C06C
:100DF20055F012C056F022EC07F01200FFFFFFFF81
:100E0200F00EC116C18EC2503F0B4009C26EC19C8A
:100E1200C2801200FFFFFFFF53C01BF054C01CF042
:100E220055C013F056C014F01200FFFFFFFF53C06D
:100E32001DF054C01EF055C015F056C016F0120039
:100E4200FFFFFFFF53C01FF054C020F055C017F042
:100E520056C018F01200FFFFFFFF2950D8A404D09B
:100E6200010E296E87EC07F0FFFF1200FFFFFFFF64
:100E72002A50D8A404D0010E2A6E90EC07F0FFFF8E
:100E82001200FFFFFFFF2B50D8A404D0010E2B6EDF
:100E920059EC07F0FFFF1200FFFF420201000000C1
:0F0EA200004201010000000042000100000000BA
:100EB200FFFFD59E11C0D6FF1250D76ED58E1200FD
:100EC200FFFFFFFFFFFF536EFFFF9EA8FDD753C03A
:100ED200ADFF1200FFFFFFFF010E0126000E0222EE
:100EE200032204221200FFFFFFFF010E0526000E5F
:100EF2000622072208221200FFFFFFFF010E092629
:100F0200000E0A220B220C221200FFFFFFFFB190FB
:100F12000DC0B2FF0E50B36EB1801200FFFFFFFF93
:100F2200CD900FC0CEFF1050CF6ECD801200FFFFCC
:100F3200FFFF53C023F054C024F01200FFFFFFFF55
:100F420053C025F054C026F01200FFFFFFFF53C02C
:100F520027F054C028F01200FFFFFFFFB1901200EB
:100F6200FFFFFFFFCD901200FFFFFFFFD59E120093
:040F7200FFFFFFFF7F
:020000040020DA
:08000000FFFFFFFFFFFFFFFF00
:020000040030CA
:0E000000FF210F0EFF0181FF0FC00FE00F4028
:00000001FF
