:020000040000FA
:0600000000F07CEF00F0AF
:10000800FFFF6982FACF07F0FBCF08F0D9CF09F0DC
:10001800DACF0AF0F2A210D001D80CD0FFFF050009
:10002800FA6E4650FD6E4750FE6EF850FF6EFA505D
:100038001200FFFFFFFFF292FFFFF0A010D001D8DF
:100048000CD0FFFF0500FA6E4450FD6E4550FE6E61
:10005800F850FF6EFA501200FFFFFFFFF090FFFF0D
:10006800F0A210D001D80CD0FFFF0500FA6E425064
:10007800FD6E4350FE6EF850FF6EFA501200FFFFFF
:10008800FFFFF092FFFFF2B0F290F2A410D001D877
:100098000CD0FFFF0500FA6E3E50FD6E3F50FE6E1D
:1000A800F850FF6EFA501200FFFFFFFFF294FFFFB7
:1000B8009EA010D001D80CD0FFFF0500FA6E3C506E
:1000C800FD6E3D50FE6EF850FF6EFA501200FFFFB5
:1000D800FFFF9E90FFFF9EB49E940AC0DAFF09C0FE
:1000E800D9FF08C0FBFF07C0FAFF69921100FFFFA4
:1000F8003BEF06F0FFFF620E106E000E116EE0EC93
:1001080006F05B0E106E000E116EE0EC06F0950E18
:10011800106E000E116EE0EC06F08E0E106E000EE2
:10012800116EE0EC06F0870E106E000E116EE0EC1A
:1001380006F0800E106E000E116EE0EC06F035EC45
:1001480007F0F20E0B6E0E0E0C6ED7EC07F0DC0EFD
:100158000B6E0E0E0C6ED0EC07F0520E0B6E0F0EDF
:100168000C6EC9EC07F0000E0B6E010E0C6E070E3C
:100178000D6E000E0F6E000E0E6E000E3AEC04F0BF
:10018800E2EC07F0400E0B6E0F0E0C6EC2EC07F09F
:10019800000E0B6E000E0C6E000E0D6E0B0E0F6E29
:1001A800B80E0E6E000E7AEC05F0DEEC07F02E0E9F
:1001B8000B6E0F0E0C6EBBEC07F062EC07F0250E11
:1001C8001A6E800E196EC6EC06F0FFFF000E02ECE8
:1001D80006F00BC0A4F00CC0A5F0A4C00BF0A5C09D
:1001E8000CF0000E0E6E320E0D6EFAEC06F00BC01F
:1001F80011F00CC012F0030E146E13686EEC06F0CA
:1002080011500A0F0001AE6FAE510E0DF3CF22F060
:10021800F4CF23F022C09CF023C09DF0000E9DBFB8
:10022800FF0E9E6F9F6FA06FA16FA26FA36FAE515D
:100238000F0DF3CF22F0F4CF23F022C0A6F023C095
:10024800A7F0000EA7BFFF0EA86FA96FAA6FAB6F2C
:10025800AC6FAD6F3250226E3350236E3450246E23
:100268003550256E266A276A286A296A9C51221801
:1002780029E19D51231826E19E51241823E19F511D
:10028800251820E1A05126181DE1A15127181AE1CF
:10029800A251281817E1A3512918D8A413D0E2ECC9
:1002A80007F0000E326E000E336E000E346E000E34
:1002B800356E4A50D8A402D0010E02D0FFFF000EBE
:1002C800FFFF4A6EFFFF2E50226E2F50236E3050D4
:1002D800246E3150256E266A276A286A296A000129
:1002E800A651221829E1A751231826E1A85124185C
:1002F80023E1A951251820E1AA5126181DE1AB5187
:1003080027181AE1AC51281817E1AD512918D8A4BB
:1003180013D0DEEC07F0000E2E6E000E2F6E000ECE
:10032800306E000E316E4950D8A402D0010E02D0B2
:10033800FFFF000EFFFF496EFFFF620E116E000EF9
:10034800126E4AC013F00FEC07F05B0E116E000E30
:10035800126E49C013F00FEC07F00001AE51E2EC49
:1003680004F02F0E8EEC07F0CF50226ECE50186E90
:1003780022C019F042EC03F02F0E8EEC07F00001BA
:10038800A651E2EC04F0200E8EEC07F00A0E226E65
:10039800BE0EFFFFE82EFDD7222EFBD700D015D7C3
:1003A800FFFF106EA8D0FFFF1050D8B411D00CC0BA
:1003B8000DF0010E0E6E0D2A03D0FFFFD8900E36F9
:1003C800FFFF0D2EFAD759C0D9FF5AC0DAFF77D0F0
:1003D800FFFF0CC00DF0010E0E6E0D2A03D0FFFFBB
:1003E800D8900E36FFFF0D2EFAD70E50FF0A0F6E6B
:1003F80059C0D9FF5AC0DAFF7AD0FFFF1050D8B4DD
:1004080011D00CC00DF0010E0E6E0D2A03D0FFFFA7
:10041800D8900E36FFFF0D2EFAD755C0D9FF56C01B
:10042800DAFF4DD0FFFF0CC00DF0010E0E6E0D2A45
:1004380003D0FFFFD8900E36FFFF0D2EFAD70E50CF
:10044800FF0A0F6E55C0D9FF56C0DAFF50D0FFFF24
:100458001050D8B40FD00CC00DF0010E0E6E0D2A3E
:1004680003D0FFFFD8900E36FFFF0D2EFAD70E509F
:10047800821256D0FFFF0CC00DF0010E0E6E0D2A31
:1004880003D0FFFFD8900E36FFFF0D2EFAD70E507F
:10049800FF0A821645D0FFFF1050D8B414D00CC004
:1004A8000DF0010E0E6E0D2A03D0FFFFD8900E3608
:1004B800FFFF0D2EFAD74DC0D9FF4EC0DAFFFFFF60
:1004C8000E50DF122DD0FFFF0CC00DF0010E0E6E86
:1004D8000D2A03D0FFFFD8900E36FFFF0D2EFAD756
:1004E8000E50FF0A0F6E4DC0D9FF4EC0DAFFFFFF56
:1004F8000F50DF1615D0FFFF0B500D6E0E6A0E5011
:10050800000AD8A40DD00D50410AD8B44CD7030A1C
:10051800D8B473D7010AD8B49AD7070AD8B4BBD7C6
:10052800FFFF1200FFFFFFFF0F6E90D0FFFF0F507D
:10053800D8B40FD00CC00DF0010E0E6E0D2A03D0EA
:10054800FFFFD8900E36FFFF0D2EFAD70E509212ED
:1005580092D0FFFF0CC00DF0010E0E6E0D2A03D0D5
:10056800FFFFD8900E36FFFF0D2EFAD70E50FF0A68
:10057800921681D0FFFF0F50D8B40FD00CC00DF0E9
:10058800010E0E6E0D2A03D0FFFFD8900E36FFFF26
:100598000D2EFAD70E5093126ED0FFFF0CC00DF03F
:1005A800010E0E6E0D2A03D0FFFFD8900E36FFFF06
:1005B8000D2EFAD70E50FF0A93165DD0FFFF0F508D
:1005C800D8B40FD00CC00DF0010E0E6E0D2A03D05A
:1005D800FFFFD8900E36FFFF0D2EFAD70E5094125B
:1005E8004AD0FFFF0CC00DF0010E0E6E0D2A03D08D
:1005F800FFFFD8900E36FFFF0D2EFAD70E50FF0AD8
:10060800941639D0FFFF0F50D8B40FD00CC00DF09E
:10061800010E0E6E0D2A03D0FFFFD8900E36FFFF95
:100628000D2EFAD70E50951226D0FFFF0CC00DF0F4
:10063800010E0E6E0D2A03D0FFFFD8900E36FFFF75
:100648000D2EFAD70E50FF0A951615D0FFFF0B5046
:100658000D6E0E6A0E50000AD8A40DD00D50410A36
:10066800D8B464D7030AD8B485D7010AD8B4A6D7B2
:10067800070AD8B4C7D7FFFF1200FFFFFFFF18C053
:100688001AF019C01BF0000E1C6EFFFF1D0E1C2473
:10069800D96EDA6A000EDA221AC00BF01BC00CF011
:1006A800000E0E6E0A0E0D6E9EEC06F00B50DF6EFD
:1006B8001AC011F01BC012F0000E146E0A0E136E51
:1006C8006EEC06F011C01AF012C01BF01C2A040EC2
:1006D8001C64DBD72150D8A441D02050D8A42CD0FA
:1006E8001F50D8A41BD01E50D8A40ED01D50D8A47B
:1006F80005D01D50300F8EEC07F045D0FFFF1D5080
:10070800300F8EEC07F03FD0FFFF1E50300F8EECFD
:1007180007F01D50300F8EEC07F035D0FFFF1F504B
:10072800300F8EEC07F01E50300F8EEC07F01D5086
:10073800300F8EEC07F027D0FFFF2050300F8EECE3
:1007480007F01F50300F8EEC07F01E50300F8EEC64
:1007580007F01D50300F8EEC07F015D0FFFF215029
:10076800300F8EEC07F02050300F8EEC07F01F5042
:10077800300F8EEC07F01E50300F8EEC07F01D5036
:10078800300F8EEC07F0FFFF1200FFFFFFFF000E97
:10079800146E12AE0AD0121E111E101E0F6C000E1F
:1007A800102211221222010E146EFFFF0EAE0AD083
:1007B8000E1E0D1E0C1E0B6C000E0C220D220E229E
:1007C800010E141AFFFF000E156E000E166E000EB5
:1007D800176E000E186E0F50101011101210D8B4AA
:1007E8002ED0010E136E07D0FFFFD8900F361036AB
:1007F80011361236132AFFFF12AEF6D7FFFFD89034
:1008080015361636173618360F500B5C10500C5824
:1008180011500D5812500E58D8A009D00F500B5E29
:1008280010500C5A11500D5A12500E5A1580FFFFD5
:10083800D8901232113210320F32132EDFD7FFFF49
:100848001450D8B408D0181E171E161E156C000EAA
:10085800162217221822FFFF15C00BF016C00CF045
:1008680017C00DF018C00EF01200FFFFFFFF126E48
:1008780006D0FFFFD58A19D0FFFFD59A16D0FFFF03
:100888001250106E116A1150000AD8A40ED01050E0
:10089800000AD8B4F1D7010AD8B4EBD706D0FFFFC5
:1008A800D58C12D0FFFFD59C0FD0FFFF0B50106ED8
:1008B800116A1150000AD8A407D01050000AD8B401
:1008C800EED7010AD8B4EED7FFFFD59806D0FFFFC0
:1008D800D58612D0FFFFD5960FD0FFFF0C50106EB3
:1008E800116A1150000AD8A407D01050000AD8B4D1
:1008F800EED7010AD8B4EED7FFFFD5500D18F80B84
:100908000D18D56E0EC038F00FC039F038C0D6FFBC
:100918003950D76ED58E1200FFFFFFFF046E39D015
:10092800FFFF01C002F0010E036E022A03D0FFFF91
:10093800D8900336FFFF022EFAD759C0D9FF5AC004
:10094800DAFF23D0FFFF01C002F0010E036E022A76
:1009580003D0FFFFD8900336FFFF022EFAD755C009
:10096800D9FF56C0DAFF11D0FFFF01C002F0010E17
:10097800036E022A03D0FFFFD8900336FFFF022E32
:10098800FAD74DC0D9FF4EC0DAFFFFFF0350DF1A78
:1009980012D0FFFF0450026E036A0350000AD8A465
:1009A8000AD00250410AD8B4BBD7030AD8B4CAD770
:1009B800060AD8B4D9D7FFFF1200FFFFFFFF136E56
:1009C80013C014F0000E186EFFFF150E1824D96E10
:1009D800DA6A000EDA2214C00BF00C6A000E0E6EF2
:1009E8000A0E0D6EC0EC05F00B50DF6E14C00BF054
:1009F8000C6A000E0E6E0A0E0D6E2EEC05F00B50F2
:100A0800146E182A020E1864DFD71750D8A412D013
:100A18001650D8A405D01550300F8EEC07F017D01B
:100A2800FFFF1650300F8EEC07F01550300F8EEC8C
:100A380007F00DD0FFFF1750300F8EEC07F016505F
:100A4800300F8EEC07F01550300F8EEC07F0FFFFDB
:100A58001200FFFFFFFF000E106E0EAE06D00D6CE9
:100A68000E1ED8B00E2A010E106EFFFF0CAE06D077
:100A78000B6C0C1ED8B00C2A010E101AFFFF000ECA
:100A8800126E000E116E0D500E10D8B420D0010E4B
:100A98000F6E05D0FFFFD8900D360E360F2AFFFFD8
:100AA8000EAEF8D7FFFFD890113612360D500B5CFA
:100AB8000E500C58D8A005D00D500B5E0E500C5A95
:100AC8001180FFFFD8900E320D320F2EEBD7FFFFAB
:100AD8001050D8B404D0116C121ED8B0122AFFFFDF
:100AE80011C00BF012C00CF01200FFFFFFFF126ED6
:100AF80006D0FFFFCD8212D0FFFFCD920FD0FFFFAF
:100B08001250106E116A1150000AD8A407D0105064
:100B1800000AD8B4F1D7010AD8B4EBD7FFFF0BB05D
:100B280002D0CD9E01D0CD8E0ED0FFFFCF0ECD16B8
:100B380019D0FFFF0DC010F0103ACD501018CF0B90
:100B48001018CD6E0FD0FFFF0C50106E116A1150A7
:100B5800000AD8A407D01050000AD8B4E6D7010A72
:100B6800D8B4E7D7FFFFCD969E9036C0CEFF37505A
:100B7800CF6ECD801200FFFFFFFF000E106E0CAE8F
:100B880006D00B6C0C1ED8B00C2A010E106EFFFF9D
:100B98000EAE04D00D6C0E1ED8B00E2AFFFF0D50FD
:100BA8000E10D8B41CD0010E0F6E05D0FFFFD890E0
:100BB8000D360E360F2AFFFF0EAEF8D7FFFF0D5089
:100BC8000B5C0E500C58D8A004D00D500B5E0E5084
:100BD8000C5AFFFFD8900E320D320F2EEFD7FFFFC1
:100BE8001050D8B404D00B6C0C1ED8B00C2AFFFFE0
:100BF8000BC00BF00CC00CF01200FFFFFFFF116ED2
:100C080011C00DF00D460D460D46C2500D18C70B0C
:100C18000D18C26E11C00DF0010E0E6E0D2A03D014
:100C2800FFFFD8900E36FFFF0D2EFAD70E50921206
:100C3800020E0D6EF20EFFFFE82EFDD70D2EFBD72C
:100C480000D0C284FFFF9EACFDD7C350C4CF0DF0C7
:100C58000E6A0DC00EF00D6A0D100F6E0E50106E5C
:100C68009E9C0FC00BF010C00CF01200FFFFA80EE6
:100C7800F66E0E0EF76E000EF86E00EE80F010EEB7
:100C88001CF00900F5CFEEFFE550E150FAE18A0EBD
:100C9800F66E0E0EF76E000EF86E00EE4BF010EECC
:100CA8001EF00900F5CFEEFFE550E150FAE100EE45
:100CB800AFF0080EEE6AE806FDE100EE2AF0210E1C
:100CC800EE6AE806FDE169906992000EF86E00018F
:100CD8007EEF00F0FFFF000E176E000E166E135029
:100CE8001410D8B420D0010E156E05D0FFFFD8908F
:100CF80013361436152AFFFF14AEF8D7FFFFD89025
:100D0800163617361350115C14501258D8A005D057
:100D18001350115E1450125A1680FFFFD8901432E7
:100D28001332152EEBD7FFFF16C011F017C012F0C3
:100D38001200FFFFFFFF0D500E10D8B41CD0010E9B
:100D48000F6E05D0FFFFD8900D360E360F2AFFFF25
:100D58000EAEF8D7FFFF0D500B5C0E500C58D8A004
:100D680004D00D500B5E0E500C5AFFFFD8900E3277
:100D78000D320F2EEFD7FFFF0BC00BF00CC00CF09D
:100D88001200FFFFFFFFAC84900E0B6ED00E0C6EAE
:100D9800030E0D6E000E0E6E19C00FF01AC010F083
:100DA800116A126ACAEC03F00B04AF6EAC98AB8EF2
:100DB800949CAC8A1200FFFFFFFF10C0D9FF11C03E
:100DC800DAFFDF500B6E20EE01F01050D9261150DB
:100DD800DA22DF500C6E20EE02F01050D9261150A6
:100DE800DA22DF5097EC02F01200FFFFFFFF0B50F2
:100DF8000D02F3CF0FF0F4CF10F00B500E02F350AA
:100E080010260C500D02F35010260FC00BF010C026
:100E18000CF01200FFFFFFFF11C0D9FF12C0DAFF6C
:100E2800DF500B6E20EE01F01150D9261250DA2255
:100E3800DF500C6E1350D4EC01F01200FFFFFFFFDF
:100E480020EE01F00550D9260650DA22DF50016E57
:100E580005C0D9FF06C0DAFFDF5091EC04F012009C
:100E6800FFFFFFFFF28EF28CF288F086F088F18C9B
:100E7800F18AF188F296F29A9E909D809F901200D6
:100E8800FFFF950F830F940F820F930F810F920F1F
:100E9800800F440100000000004400000000000032
:100EA800420201000000004201010000000042006F
:100EB800010000000044020000000000FFFFF00EE7
:100EC800C116C18EC2503F0B4009C26EC19CC28080
:100ED8001200FFFFFFFF4950D8A404D0010E496E4D
:100EE800B2EC07F0FFFF1200FFFFFFFF4A50D8A443
:100EF80004D0010E4A6E84EC07F0FFFF1200FFFFDA
:100F0800FFFFD59E38C0D6FF3950D76ED58E120058
:100F1800FFFFFFFFFFFF0B6EFFFF9EA8FDD70BC073
:100F2800ADFF1200FFFFFFFF010E2E26000E2F223D
:100F3800302231221200FFFFFFFF010E3226000E81
:100F48003322342235221200FFFFFFFF950E056E73
:100F5800000E066E23EC07F01200FFFFFFFFCD9096
:100F680036C0CEFF3750CF6ECD801200FFFFFFFF97
:100F78000BC03CF00CC03DF01200FFFFFFFF0BC0A0
:100F88003EF00CC03FF01200FFFFFFFF0BC042F025
:100F98000CC043F01200FFFFFFFF0BC044F00CC071
:100FA80045F01200FFFFFFFF0BC046F00CC047F0F2
:100FB8001200FFFFFFFFCD901200FFFFFFFFD59E3D
:060FC8001200FFFFFFFF15
:020000040020DA
:08000000FFFFFFFFFFFFFFFF00
:020000040030CA
:0E000000FF210F0EFF0181FF0FC00FE00F4028
:00000001FF
