:020000040000FA
:0600000000F058EF00F0D3
:10000800FFFF6982FACF41F0FBCF42F0D9CF43F02E
:10001800DACF44F0F2A210D001D80CD0FFFF0500CF
:10002800FA6E6750FD6E6850FE6EF850FF6EFA501B
:100038001200FFFFFFFFF292FFFFF0A010D001D8DF
:100048000CD0FFFF0500FA6E6550FD6E6650FE6E1F
:10005800F850FF6EFA501200FFFFFFFFF090FFFF0D
:10006800F0A210D001D80CD0FFFF0500FA6E635043
:10007800FD6E6450FE6EF850FF6EFA501200FFFFDE
:10008800FFFFF092FFFFF2B0F290F2B4F2949EB448
:100098009E9444C0DAFF43C0D9FF42C0FBFF41C071
:1000A800FAFF69921100FFFF75EF03F0FFFF496E39
:1000B80090D0FFFF4950D8B40FD046C047F0010E8A
:1000C800486E472A03D0FFFFD8904836FFFF472ED7
:1000D800FAD74850921292D0FFFF46C047F0010E5F
:1000E800486E472A03D0FFFFD8904836FFFF472EB7
:1000F800FAD74850FF0A921681D0FFFF4950D8B46A
:100108000FD046C047F0010E486E472A03D0FFFFC4
:10011800D8904836FFFF472EFAD7485093126ED032
:10012800FFFF46C047F0010E486E472A03D0FFFF85
:10013800D8904836FFFF472EFAD74850FF0A931643
:100148005DD0FFFF4950D8B40FD046C047F0010E2C
:10015800486E472A03D0FFFFD8904836FFFF472E46
:10016800FAD7485094124AD0FFFF46C047F0010E14
:10017800486E472A03D0FFFFD8904836FFFF472E26
:10018800FAD74850FF0A941639D0FFFF4950D8B41F
:100198000FD046C047F0010E486E472A03D0FFFF34
:1001A800D8904836FFFF472EFAD74850951226D0E8
:1001B800FFFF46C047F0010E486E472A03D0FFFFF5
:1001C800D8904836FFFF472EFAD74850FF0A9516B1
:1001D80015D0FFFF4550476E486A4850000AD8A41A
:1001E8000DD04750410AD8B464D7030AD8B485D78C
:1001F800010AD8B4A6D7070AD8B4C7D7FFFF120098
:10020800FFFFFFFF000E4E6E4CAE0AD04C1E4B1E79
:100218004A1E496C000E4A224B224C22010E4E6E99
:10022800FFFF48AE0AD0481E471E461E456C000E0A
:10023800462247224822010E4E1AFFFF000E4F6E3B
:10024800000E506E000E516E000E526E49504A104C
:100258004B104C10D8B42ED0010E4D6E07D0FFFFB6
:10026800D89049364A364B364C364D2AFFFF4CAEAD
:10027800F6D7FFFFD8904F36503651365236495090
:10028800455C4A5046584B5047584C504858D8A09F
:1002980009D04950455E4A50465A4B50475A4C502F
:1002A800485A4F80FFFFD8904C324B324A3249327D
:1002B8004D2EDFD7FFFF4E50D8B408D0521E511E26
:1002C800501E4F6C000E502251225222FFFF4FC089
:1002D80045F050C046F051C047F052C048F01200F7
:1002E800FFFFFFFF4B6E06D0FFFFD58A19D0FFFF37
:1002F800D59A16D0FFFF4B50496E4A6A4A50000AF9
:10030800D8A40ED04950000AD8B4F1D7010AD8B4FD
:10031800EBD706D0FFFFD58C19D0FFFFD59C16D0A0
:10032800FFFF4550496E4A6A4A50000AD8A40ED0C9
:100338004950000AD8B4EED7010AD8B4EED706D08F
:10034800FFFFD58819D0FFFFD59816D0FFFF46507C
:10035800496E4A6A4A50000AD8A40ED04950000A89
:10036800D8B4F1D7010AD8B4EBD706D0FFFFD586A9
:1003780012D0FFFFD5960FD0FFFF4750496E4A6A4B
:100388004A50000AD8A407D04950000AD8B4EED77A
:10039800010AD8B4EED7FFFFD5504818F80B481813
:1003A800D56ED58E1200FFFFFFFF340E4A6E000E89
:1003B8004B6EACEC03F02D0E4A6E000E4B6EACEC9F
:1003C80003F0260E4A6E000E4B6EACEC03F01F0EC7
:1003D8004A6E000E4B6EACEC03F0180E4A6E000E1F
:1003E8004B6EACEC03F0110E4A6E000E4B6EACEC8B
:1003F80003F0D8EC03F0F60E456E070E466E26ECB9
:1004080004F0E00E456E070E466E1FEC04F01E0E5B
:10041800456E080E466E18EC04F0000E456E000E90
:10042800466E010E476E070E486E000E75EC01F021
:10043800E4EC03F0250E546E800E536E92EC03F03C
:10044800FFFFD6507EEC02F0200E06EC04F0F8D741
:10045800FFFF3E6E39D0FFFF3BC03CF0010E3D6E02
:100468003C2A03D0FFFFD8903D36FFFF3C2EFAD739
:100478000FC0D9FF10C0DAFF23D0FFFF3BC03CF00C
:10048800010E3D6E3C2A03D0FFFFD8903D36FFFF9A
:100498003C2EFAD70BC0D9FF0CC0DAFF11D0FFFFF2
:1004A8003BC03CF0010E3D6E3C2A03D0FFFFD890C4
:1004B8003D36FFFF3C2EFAD703C0D9FF04C0DAFF50
:1004C800FFFF3D50DF1A12D0FFFF3E503C6E3D6AE1
:1004D8003D50000AD8A40AD03C50410AD8B4BBD732
:1004E800030AD8B4CAD7060AD8B4D9D7FFFF12006E
:1004F800FFFFFFFFFFFF4D6E4DC04EF0000E526E26
:10050800FFFF4F0E5224D96EDA6A000EDA224EC06F
:1005180045F0466A000E486E0A0E476E16EC03F068
:100528004550DF6E4EC045F0466A000E486E0A0E12
:10053800476ECAEC02F045504E6E522A020E5264C3
:10054800DFD75150D8A412D05050D8A405D04F505E
:10055800300F06EC04F017D0FFFF5050300F06ECB8
:1005680004F04F50300F06EC04F00DD0FFFF51504F
:10057800300F06EC04F05050300F06EC04F04F50EA
:10058800300F06EC04F0FFFF1200FFFFFFFF000E24
:100598004A6E48AE06D0476C481ED8B0482A010EAD
:1005A8004A6EFFFF46AE06D0456C461ED8B0462AB6
:1005B800010E4A1AFFFF000E4C6E000E4B6E47509C
:1005C8004810D8B420D0010E496E05D0FFFFD8904E
:1005D80047364836492AFFFF48AEF8D7FFFFD8907C
:1005E8004B364C364750455C48504658D8A005D045
:1005F8004750455E4850465A4B80FFFFD8904832D6
:100608004732492EEBD7FFFF4A50D8B404D04B6C81
:100618004C1ED8B04C2AFFFF4BC045F04CC046F0EA
:100628001200FFFFFFFF000E4A6E46AE06D0456C73
:10063800461ED8B0462A010E4A6EFFFF48AE04D0C7
:10064800476C481ED8B0482AFFFF47504810D8B416
:100658001CD0010E496E05D0FFFFD89047364836AA
:10066800492AFFFF48AEF8D7FFFF4750455C48507E
:100678004658D8A004D04750455E4850465AFFFF18
:10068800D89048324732492EEFD7FFFF4A50D8B4A6
:1006980004D0456C461ED8B0462AFFFF45C045F039
:1006A80046C046F01200FFFF950F830F940F820F8C
:1006B800930F810F920F800F420201000000004249
:1006C8000101000000004200010000000044020097
:1006D8000000000044010000000000440000000089
:1006E8000000B00EF66E060EF76E000EF86E00EE05
:1006F80001F010EE3AF00900F5CFEEFFE550E150B9
:10070800FAE100EE55F0140EEE6AE806FDE1699094
:100718006992000EF86E0001D8EF01F0FFFFAC847B
:10072800900E456ED00E466E030E476E000E486E54
:1007380053C049F054C04AF04B6A4C6A05EC01F0CA
:100748004504AF6EAC98AB8E949CAC8A1200FFFF48
:10075800FFFF4AC0D9FF4BC0DAFFDF50456E20EEDD
:1007680001F04A50D9264B50DA22DF50466E20EE6F
:1007780002F04A50D9264B50DA22DF505AEC00F0EA
:100788001200FFFFFFFF20EE01F03F50D926405036
:10079800DA22DF503B6E3FC0D9FF40C0DAFFDF509E
:1007A8002CEC02F01200FFFFFFFFF28EF288F086B9
:1007B800F088F18CF18AF188F296F28A1200FFFF34
:1007C800FFFFF00EC116C18EC2503F0B4009C26E2A
:1007D800C19CC2801200FFFFFFFF2D0E3F6E000E6E
:1007E800406EC6EC03F02DEC04F01200FFFFFFFF93
:1007F800340E3F6E000E406EC6EC03F031EC04F090
:100808001200FFFFFFFF456EFFFF9EA8FDD745C002
:10081800ADFF1200FFFFFFFF260E3F6E000E406E79
:10082800C6EC03F01200FFFFFFFF45C063F046C0AF
:1008380064F01200FFFFFFFF45C065F046C066F098
:100848001200FFFFFFFF45C067F046C068F01200C6
:10085800FFFFFFFFD58E1200FFFFFFFFD59E12009E
:04086800FFFFFFFF90
:020000040020DA
:08000000FFFFFFFFFFFFFFFF00
:020000040030CA
:0E000000FF210F0EFF0181FF0FC00FE00F4028
:00000001FF
