:020000040000FA
:0600000000F093EF00F098
:10000800FFFF6B82FACF51F0FBCF52F0F2A210D073
:1000180001D80CD0FFFF0500FA6E2750FD6E28505E
:10002800FE6EF850FF6EFA501200FFFFFFFFF292CB
:10003800FFFFF0A010D001D80CD0FFFF0500FA6E2A
:100048002550FD6E2650FE6EF850FF6EFA501200D5
:10005800FFFFFFFFF090FFFFF0A210D001D80CD0F7
:10006800FFFF0500FA6E2350FD6E2450FE6EF85017
:10007800FF6EFA501200FFFFFFFFF092FFFFF2B091
:10008800F290F2A414D001D80CD0FFFF0500FA6E4C
:100098001F50FD6E2050FE6EF850FF6EFA50120091
:1000A800FFFFFFFF17C0D6FF1850D76EF294FFFF6F
:1000B8009EA014D001D80CD0FFFF0500FA6E1D5089
:1000C800FD6E1E50FE6EF850FF6EFA501200FFFFD4
:1000D800FFFF15C0CEFF1650CF6E9E90FFFFA1A266
:1000E80014D001D80CD0FFFF0500FA6E1B50FD6E2E
:1000F8001C50FE6EF850FF6EFA501200FFFFFFFF13
:1001080013C0B2FF1450B36EA192FFFF9EB49E9429
:1001180052C0FBFF51C0FAFF6B921100FFFF9DEF29
:1001280006F0FFFF4A0E586E000E596E1AEC07F0E3
:10013800430E586E000E596E1AEC07F03C0E586EBE
:10014800000E596E1AEC07F0AA0E586E000E596E82
:100158001AEC07F0A30E586E000E596E1AEC07F051
:100168009C0E586E000E596E1AEC07F0950E586EDC
:10017800000E596E1AEC07F08E0E586E000E596E6E
:100188001AEC07F0870E586E000E596E1AEC07F03D
:10019800800E586E000E596E1AEC07F076EC07F0D8
:1001A800300E536E100E546E71EC08F01A0E536E2A
:1001B800100E546E6AEC08F0040E536E100E546E56
:1001C80063EC08F0000E536E010E546E070E556E68
:1001D800000E576E0B0E566E000E4FEC04F080ECBE
:1001E80008F0900E576E100E586EC8EC07F0000E0F
:1001F800536E000E546E000E556E0B0E576EEA0EBF
:10020800566E000E8FEC05F07CEC08F07E0E576EF3
:10021800100E586EBBEC07F0000E536E000E546EB5
:10022800000E556E0B0E576EEA0E566E000ED9EC88
:1002380005F078EC08F06C0E576E100E586EAEECA8
:1002480007F0D5EC07F0250E626E800E616E00ECAB
:1002580007F0FFFF000E64EC06F053C0B9F054C07D
:10026800BAF0B9C053F0BAC054F0000E566E320E50
:10027800556E4DEC07F053C059F054C05AF0030EB8
:100288005C6E5B68D0EC06F059500A0F0001C46F31
:10029800C4510C0DF3CF63F0F4CF64F063C0B1F038
:1002A80064C0B2F0000EB2BFFF0EB36FB46FB56F8B
:1002B800B66FB76FB86FC4510D0DF3CF63F0F4CFBD
:1002C80064F063C0BCF064C0BDF0000EBDBFFF0E9B
:1002D800BE6FBF6FC06FC16FC26FC36F0950636ECF
:1002E8000A50646E0B50656E0C50666E676A686AD9
:1002F800696A6A6AB151631829E1B251641826E142
:10030800B351651823E1B451661820E1B551671857
:100318001DE1B65168181AE1B751691817E1B851CB
:100328006A18D8A413D080EC08F0000E096E000EED
:100338000A6E000E0B6E000E0C6E2B50D8A402D065
:10034800010E02D0FFFF000EFFFF2B6EFFFF0550CE
:10035800636E0650646E0750656E0850666E676A75
:10036800686A696A6A6A0001BC51631829E1BD516B
:10037800641826E1BE51651823E1BF51661820E1D3
:10038800C05167181DE1C15168181AE1C2516918B6
:1003980017E1C3516A18D8A413D07CEC08F0000EFA
:1003A800056E000E066E000E076E000E086E2A50CF
:1003B800D8A402D0010E02D0FFFF000EFFFF2A6E64
:1003C800FFFF0150636E0250646E0350656E045067
:1003D800666E676A686A696A6A6A0001BC5163186E
:1003E80029E1BD51641826E1BE51651823E1BF51CA
:1003F800661820E1C05167181DE1C15168181AE15B
:10040800C251691817E1C3516A18D8A413D078ECFF
:1004180008F0000E016E000E026E000E036E000E54
:10042800046E2950D8A402D0010E02D0FFFF000E9E
:10043800FFFF296EFFFF8E0E576E000E586E9CEC64
:1004480007F00009D8B404D080EC08F0000E2B6E39
:10045800FFFF870E576E000E586E9CEC07F00009E0
:10046800D8B404D07CEC08F0000E2A6EFFFF800E92
:10047800576E000E586E9CEC07F00009D8B404D0F3
:1004880078EC08F0000E296EFFFF4A0E586E000E39
:10049800596E2BC05AF062EC07F0430E586E000EEE
:1004A800596E2AC05AF062EC07F03C0E586E000EE6
:1004B800596E29C05AF062EC07F00001C451F7ECFC
:1004C80004F02F0E2DEC08F0010E0001BB6F2B502D
:1004D800D8A408D02A50D8A405D02950D8A402D02E
:1004E800000EBB6FFFFFAA0E586E000E596EBBC000
:1004F8005AF062EC07F00A0E636EBE0EFFFFE82E9C
:10050800FDD7632EFBD700D0A4D6FFFF576E90D03F
:10051800FFFF5750D8B40FD054C055F0010E566E97
:10052800552A03D0FFFFD8905636FFFF552EFAD72D
:100538005650801292D0FFFF54C055F0010E566EEF
:10054800552A03D0FFFFD8905636FFFF552EFAD70D
:100558005650FF0A801681D0FFFF5750D8B40FD0ED
:1005680054C055F0010E566E552A03D0FFFFD8909F
:100578005636FFFF552EFAD7565081126ED0FFFF20
:1005880054C055F0010E566E552A03D0FFFFD8907F
:100598005636FFFF552EFAD75650FF0A81165DD002
:1005A800FFFF5750D8B40FD054C055F0010E566E07
:1005B800552A03D0FFFFD8905636FFFF552EFAD79D
:1005C800565082124AD0FFFF54C055F0010E566EA5
:1005D800552A03D0FFFFD8905636FFFF552EFAD77D
:1005E8005650FF0A821639D0FFFF5750D8B40FD0A3
:1005F80054C055F0010E566E552A03D0FFFFD8900F
:100608005636FFFF552EFAD75650831226D0FFFFD5
:1006180054C055F0010E566E552A03D0FFFFD890EE
:100628005636FFFF552EFAD75650FF0A831615D0B7
:10063800FFFF5350556E566A5650000AD8A40DD085
:100648005550410AD8B464D7030AD8B485D7010AEB
:10065800D8B4A6D7070AD8B4C7D7FFFF1200FFFF40
:10066800FFFF576E90D0FFFF5750D8B40FD054C03B
:1006780055F0010E566E552A03D0FFFFD890563616
:10068800FFFF552EFAD75650921292D0FFFF54C052
:1006980055F0010E566E552A03D0FFFFD8905636F6
:1006A800FFFF552EFAD75650FF0A921681D0FFFF4A
:1006B8005750D8B40FD054C055F0010E566E552A75
:1006C80003D0FFFFD8905636FFFF552EFAD7565065
:1006D80093126ED0FFFF54C055F0010E566E552A86
:1006E80003D0FFFFD8905636FFFF552EFAD7565045
:1006F800FF0A93165DD0FFFF5750D8B40FD054C0EF
:1007080055F0010E566E552A03D0FFFFD890563685
:10071800FFFF552EFAD7565094124AD0FFFF54C007
:1007280055F0010E566E552A03D0FFFFD890563665
:10073800FFFF552EFAD75650FF0A941639D0FFFFFF
:100748005750D8B40FD054C055F0010E566E552AE4
:1007580003D0FFFFD8905636FFFF552EFAD75650D4
:10076800951226D0FFFF54C055F0010E566E552A3B
:1007780003D0FFFFD8905636FFFF552EFAD75650B4
:10078800FF0A951615D0FFFF5350556E566A5650FE
:10079800000AD8A40DD05550410AD8B464D7030A2A
:1007A800D8B485D7010AD8B4A6D7070AD8B4C7D70A
:1007B800FFFF1200FFFFFFFF000E5C6E5AAE0AD06B
:1007C8005A1E591E581E576C000E582259225A227A
:1007D800010E5C6EFFFF56AE0AD0561E551E541E03
:1007E800536C000E542255225622010E5C1AFFFF4C
:1007F800000E5D6E000E5E6E000E5F6E000E606E87
:100808005750581059105A10D8B42ED0010E5B6E9C
:1008180007D0FFFFD8905736583659365A365B2AD4
:10082800FFFF5AAEF6D7FFFFD8905D365E365F36CB
:1008380060365750535C58505458595055585A5070
:100848005658D8A009D05750535E5850545A59504A
:10085800555A5A50565A5D80FFFFD8905A3259322D
:10086800583257325B2EDFD7FFFF5C50D8B408D020
:10087800601E5F1E5E1E5D6C000E5E225F2260229F
:10088800FFFF5DC053F05EC054F05FC055F060C01C
:1008980056F01200FFFFFFFF5A6E06D0FFFFD58A01
:1008A80019D0FFFFD59A16D0FFFF5A50586E596AD3
:1008B8005950000AD8A40ED05850000AD8B4F1D71D
:1008C800010AD8B4EBD706D0FFFFD58C12D0FFFFB2
:1008D800D59C0FD0FFFF5350586E596A5950000AE3
:1008E800D8A407D05850000AD8B4EED7010AD8B413
:1008F800EED7FFFFD59806D0FFFFD58612D0FFFFB1
:10090800D5960FD0FFFF5450586E596A5950000AB7
:10091800D8A407D05850000AD8B4EED7010AD8B4E2
:10092800EED7FFFFD5505518F80B5518D56E56C0A1
:1009380011F057C012F011C0D6FF1250D76ED58EE5
:100948001200FFFFFFFF566E37D0FFFF53C054F071
:10095800010E556E542A03D0FFFFD8905536FFFF7D
:10096800542EFAD75550801422D0FFFF53C054F0AC
:10097800010E556E542A03D0FFFFD8905536FFFF5D
:10098800542EFAD75550811412D0FFFF010E28D0EB
:10099800FFFF53C054F0010E556E542A03D0FFFFD9
:1009A800D8905536FFFF542EFAD755508314FFFFC1
:1009B8000009D8A4EAD712D0FFFF5650546E556AE2
:1009C8005550000AD8A40AD05450410AD8B4BDD70B
:1009D800030AD8B4CAD7060AD8B4DAD7FFFF000E7C
:1009E800FFFF1200FFFFFFFF5B6E5BC05CF0000EB5
:1009F800606EFFFF5D0E6024D96EDA6A000EDA229F
:100A08005CC053F0546A000E566E0A0E556E22EC06
:100A180006F05350DF6E5CC053F0546A000E566EF9
:100A28000A0E556E43EC05F053505C6E602A020EB8
:100A38006064DFD75F50D8A412D05E50D8A405D028
:100A48005D50300F2DEC08F017D0FFFF5E50300FCF
:100A58002DEC08F05D50300F2DEC08F00DD0FFFFA5
:100A68005F50300F2DEC08F05E50300F2DEC08F081
:100A78005D50300F2DEC08F0FFFF1200FFFFFFFF65
:100A8800000E586E56AE06D0556C561ED8B0562A73
:100A9800010E586EFFFF54AE06D0536C541ED8B0EA
:100AA800542A010E581AFFFF000E5A6E000E596E96
:100AB80055505610D8B420D0010E576E05D0FFFF00
:100AC800D89055365636572AFFFF56AEF8D7FFFF4F
:100AD800D89059365A365550535C56505458D8A069
:100AE80005D05550535E5650545A5980FFFFD89040
:100AF80056325532572EEBD7FFFF5850D8B404D092
:100B0800596C5A1ED8B05A2AFFFF59C053F05AC020
:100B180054F01200FFFFFFFF5A6E06D0FFFFCD8290
:100B280012D0FFFFCD920FD0FFFF5A50586E596A6E
:100B38005950000AD8A407D05850000AD8B4F1D7A1
:100B4800010AD8B4EBD7FFFF53B002D0CD9E01D035
:100B5800CD8E0ED0FFFFCF0ECD1619D0FFFF55C09A
:100B680058F0583ACD505818CF0B5818CD6E0FD0B2
:100B7800FFFF5450586E596A5950000AD8A407D03C
:100B88005850000AD8B4E6D7010AD8B4E7D7FFFF0F
:100B9800CD969E9056C00FF057C010F00FC0CEFFF4
:100BA8001050CF6ECD801200FFFFFFFF5A6E06D0A7
:100BB800FFFFB18212D0FFFFB1920FD0FFFF5A5052
:100BC800586E596A5950000AD8A407D05850000ADC
:100BD800D8B4F1D7010AD8B4EBD7FFFF53B002D08D
:100BE800B19E01D0B18E0ED0FFFFCF0EB11619D035
:100BF800FFFF55C058F0583AB1505818CF0B581845
:100C0800B16E0FD0FFFF5450586E596A5950000A00
:100C1800D8A407D05850000AD8B4E6D7010AD8B4E7
:100C2800E7D7FFFFA19256C00DF057C00EF00DC0D8
:100C3800B2FF0E50B36EB1801200FFFFFFFF000E2F
:100C4800586E54AE06D0536C541ED8B0542A010EB8
:100C5800586EFFFF56AE04D0556C561ED8B0562AB3
:100C6800FFFF55505610D8B41CD0010E576E05D052
:100C7800FFFFD89055365636572AFFFF56AEF8D79D
:100C8800FFFF5550535C56505458D8A004D05550C7
:100C9800535E5650545AFFFFD89056325532572E4D
:100CA800EFD7FFFF5850D8B404D0536C541ED8B0B7
:100CB800542AFFFF53C053F054C054F01200FFFFF2
:100CC800FFFF596E59C055F0554655465546C25016
:100CD8005518C70B5518C26E59C055F0010E566EFF
:100CE800552A03D0FFFFD8905636FFFF552EFAD766
:100CF80056509212020E556EF20EFFFFE82EFDD7E7
:100D0800552EFBD700D0C284FFFF9EACFDD7C35041
:100D1800C4CF55F0566A55C056F0556A5510576EEF
:100D28005650586E9E9C57C053F058C054F012004D
:100D3800FFFF680EF66E0E0EF76E000EF86E00EEF0
:100D480080F010EE31F00900F5CFEEFFE550E150EC
:100D5800FAE1120EF66E0F0EF76E000EF86E00EE48
:100D68002CF010EE25F00900F5CFEEFFE550E1502C
:100D7800FAE100EEC5F0080EEE6AE806FDE100EEC5
:100D880001F02B0EEE6AE806FDE16B906B92000E07
:100D9800F86E000195EF00F0FFFF000E5F6E000E89
:100DA8005E6E5B505C10D8B420D0010E5D6E05D02D
:100DB800FFFFD8905B365C365D2AFFFF5CAEF8D744
:100DC800FFFFD8905E365F365B50595C5C505A58CE
:100DD800D8A005D05B50595E5C505A5A5E80FFFF20
:100DE800D8905C325B325D2EEBD7FFFF5EC059F0C6
:100DF8005FC05AF01200FFFFFFFFAC84900E536EE5
:100E0800D00E546E030E556E000E566E61C057F02C
:100E180062C058F0596A5A6ADFEC03F05304AF6EA7
:100E2800AC98AB8E949CAC8A1200FFFFFFFF58C0B1
:100E3800D9FF59C0DAFFDF50536E20EE01F0585049
:100E4800D9265950DA22DF50546E20EE02F058505D
:100E5800D9265950DA22DF5034EC03F01200FFFF94
:100E680042050100000000420401000000004203A6
:100E780001000000004202010000000042010100E0
:100E880000000042000100000000440300000000D0
:010E98000059
:100E9A00FFFF53505502F3CF57F0F4CF58F0535099
:100EAA005602F350582654505502F350582657C04C
:100EBA0053F058C054F01200FFFFFFFF58C0D9FF8B
:100ECA0059C0DAFFDF50536E20EE01F05850D92690
:100EDA005950DA22DF50546E5A5089EC02F012004F
:100EEA00FFFFFFFFF28EF28CF288F086F088F18C19
:100EFA00F18AF188F296F28A9E909D809F90A19243
:100F0A00A082A2921200FFFF950F830F940F820F07
:100F1A00930F810F920F800F4402000000000044DB
:0D0F2A000100000000004400000000000075
:100F3800FFFF20EE01F05750D9265850DA22DF5033
:100F4800536E57C0D9FF58C0DAFFDF50A6EC04F043
:100F58001200FFFFFFFF57C053F058C054F00DC0F8
:100F680055F00EC056F0E1EC07F01200FFFFFFFF4E
:100F780057C053F058C054F00FC055F010C056F089
:100F8800ECEC07F01200FFFFFFFF57C053F058C00A
:100F980054F011C055F012C056F0F7EC07F01200EB
:100FA800FFFFFFFFF00EC116C18EC2503F0B400974
:100FB800C26EC19CC2801200FFFFFFFF53C01BF02E
:100FC80054C01CF055C013F056C014F01200FFFFB7
:100FD800FFFF53C01DF054C01EF055C015F056C099
:100FE80016F01200FFFFFFFF53C01FF054C020F09F
:100FF80055C017F056C018F01200FFFFFFFF295028
:10100800D8A404D0010E296E51EC08F0FFFF12009D
:10101800FFFFFFFF2A50D8A404D0010E2A6E5AEC15
:1010280008F0FFFF1200FFFFFFFF2B50D8A404D0E9
:10103800010E2B6E23EC08F0FFFF1200FFFFFFFFED
:10104800D59E11C0D6FF1250D76ED58E1200FFFF65
:10105800FFFFFFFF536EFFFF9EA8FDD753C0ADFFF4
:101068001200FFFFFFFF010E0126000E02220322DD
:1010780004221200FFFFFFFF010E0526000E0622C4
:10108800072208221200FFFFFFFF010E0926000EAB
:101098000A220B220C221200FFFFFFFFB1900DC0A5
:1010A800B2FF0E50B36EB1801200FFFFFFFFCD906C
:1010B8000FC0CEFF1050CF6ECD801200FFFFFFFF94
:1010C80053C023F054C024F01200FFFFFFFF53C0A9
:1010D80025F054C026F01200FFFFFFFF53C027F091
:1010E80054C028F01200FFFFFFFFB1901200FFFF6D
:1010F800FFFFCD901200FFFFFFFFD59E1200FFFFFC
:02110800FFFFE7
:020000040020DA
:08000000FFFFFFFFFFFFFFFF00
:020000040030CA
:0E000000FF210F0EFF0181FF0FC00FE00F4028
:00000001FF
