:020000040000FA
:0600000000F049EF1EF0C4
:103BFA00FFFFFFFF1CC017F01DC018F0000E80EC7D
:103C0A001FF01200FFFFFFFF1CC017F01DC018F0C5
:103C1A00010E80EC1FF01200FFFF930F810F920F2D
:103C2A00800F420101000000004200000000000075
:103C3A00FFFF20EE01F01B50D9261C50DA22DF507C
:103C4A00176E1BC0D9FF1CC0DAFFDF509FEC1EF0B5
:103C5A001200FFFFFFFF1CC0D9FF1DC0DAFFDF50B3
:103C6A00176E20EE01F01C50D9261D50DA22DF50C3
:103C7A00186E20EE02F01C50D9261D50DA22DF50B1
:103C8A0000EC1FF01200FFFF240EF66E3C0EF76EDA
:103C9A00000EF86E00EE01F010EE16F00900F5CFF6
:103CAA00EEFFE550E150FAE100EE23F0080EEE6A6D
:103CBA00E806FDE1000EF86E000164EF1EF0FFFF5A
:103CCA00100E1C6E000E1D6E2FEC1EF0090E1C6EDF
:103CDA00000E1D6E2FEC1EF0FFFF090E1B6E000E6C
:103CEA001C6E1DEC1EF00009D8B47EEF1EF081EFA9
:103CFA001EF0FFFF8FEF1EF0FFFF20EE10F000EE28
:103D0A001CF0060EDBCFEBFFE806FCE208EC1EF027
:103D1A0071EF1EF0FFFF20EE10F000EE1CF0060E11
:103D2A00DBCFEBFFE806FCE2FEEC1DF071EF1EF0C4
:103D3A0001EF00F0FFFF1A6EE3EF1EF0FFFF17C05E
:103D4A0018F0010E196E182AAEEF1EF0FFFFD89078
:103D5A001936FFFF182EABEF1EF019508014000918
:103D6A00D8A4BAEF1EF0BEEF1EF0FFFF010EC0EF9F
:103D7A001EF0FFFF000EFFFFFCEF1EF0FFFF17C053
:103D8A0018F0010E196E182ACEEF1EF0FFFFD89018
:103D9A001936FFFF182ECBEF1EF0195081140009B7
:103DAA00D8A4DAEF1EF0DEEF1EF0FFFF010EE0EFFF
:103DBA001EF0FFFF000EFFFFFCEF1EF0FFFF1A5080
:103DCA00186E196A1950000AD8B4EEEF1EF0FAEF0D
:103DDA001EF0FFFF1850410AD8B4A3EF1EF0030AE1
:103DEA00D8B4C3EF1EF0FAEF1EF0FFFF000EFFFF7C
:103DFA001200FFFFFFFFFFFF1B6E66EF1FF0FFFFC2
:103E0A001B50D8B40BEF1FF00EEF1FF0FFFF21EF8E
:103E1A001FF0FFFF18C019F0010E1A6E192A19EFC8
:103E2A001FF0FFFFD8901A36FFFF192E16EF1FF06A
:103E3A001A5092127DEF1FF0FFFF18C019F0010E01
:103E4A001A6E192A2CEF1FF0FFFFD8901A36FFFFBF
:103E5A00192E29EF1FF01A50FF0A92167DEF1FF054
:103E6A00FFFF1B50D8B43CEF1FF03FEF1FF0FFFFDE
:103E7A0052EF1FF0FFFF18C019F0010E1A6E192A2F
:103E8A004AEF1FF0FFFFD8901A36FFFF192E47EFAF
:103E9A001FF01A5093127DEF1FF0FFFF18C019F0A0
:103EAA00010E1A6E192A5DEF1FF0FFFFD8901A361D
:103EBA00FFFF192E5AEF1FF01A50FF0A93167DEFD3
:103ECA001FF0FFFF1750196E1A6A1A50000AD8B469
:103EDA0071EF1FF07DEF1FF0FFFF1950410AD8B4B0
:103EEA0004EF1FF0030AD8B435EF1FF07DEF1FF07F
:103EFA00FFFF1200FFFFFFFF1B6EE6EF1FF0FFFF41
:103F0A001B50D8B48BEF1FF08EEF1FF0FFFFA1EF0D
:103F1A001FF0FFFF18C019F0010E1A6E192A99EF47
:103F2A001FF0FFFFD8901A36FFFF192E96EF1FF0E9
:103F3A001A508012FDEF1FF0FFFF18C019F0010E92
:103F4A001A6E192AACEF1FF0FFFFD8901A36FFFF3E
:103F5A00192EA9EF1FF01A50FF0A8016FDEF1FF065
:103F6A00FFFF1B50D8B4BCEF1FF0BFEF1FF0FFFFDD
:103F7A00D2EF1FF0FFFF18C019F0010E1A6E192AAE
:103F8A00CAEF1FF0FFFFD8901A36FFFF192EC7EFAE
:103F9A001FF01A508112FDEF1FF0FFFF18C019F031
:103FAA00010E1A6E192ADDEF1FF0FFFFD8901A369C
:103FBA00FFFF192EDAEF1FF01A50FF0A8116FDEFE4
:103FCA001FF0FFFF1750196E1A6A1A50000AD8B468
:103FDA00F1EF1FF0FDEF1FF0FFFF1950410AD8B4AF
:103FEA0084EF1FF0030AD8B4B5EF1FF0FDEF1FF0FE
:063FFA00FFFF1200FFFFB3
:020000040020DA
:08000000FFFFFFFFFFFFFFFF00
:020000040030CA
:0E000000FF210F0EFF0181FF0FC00FE00F4028
:00000001FF
