:020000040000FA
:0600000000F014EF00F017
:10000800FFFF4382F2B2F292F0B0F090F0B2F092B9
:10001800F2B0F290F2B4F29443921100FFFFFFFFA6
:1000280027EF01F0FFFF406E6CD0FFFF4050D8B4BF
:100038000FD03DC03EF0010E3F6E3E2A03D0FFFFB9
:10004800D8903F36FFFF3E2EFAD73F5092126BD022
:10005800FFFF3DC03EF0010E3F6E3E2A03D0FFFF7A
:10006800D8903F36FFFF3E2EFAD73F50FF0A921630
:100078005AD0FFFF4050D8B40FD03DC03EF0010E1B
:100088003F6E3E2A03D0FFFFD8903F36FFFF3E2E3B
:10009800FAD73F50931247D0FFFF3DC03EF0010E04
:1000A8003F6E3E2A03D0FFFFD8903F36FFFF3E2E1B
:1000B800FAD73F50FF0A931636D0FFFF4050D8B406
:1000C8000FD03DC03EF0010E3F6E3E2A03D0FFFF29
:1000D800D8903F36FFFF3E2EFAD73F50951223D0D7
:1000E800FFFF3DC03EF0010E3F6E3E2A03D0FFFFEA
:1000F800D8903F36FFFF3E2EFAD73F50FF0A95169D
:1001080012D0FFFF3C503E6E3F6A3F50000AD8A411
:100118000AD03E50410AD8B488D7030AD8B4A9D720
:10012800060AD8B4CAD7FFFF1200FFFFFFFF426ECE
:1001380006D0FFFFD58A19D0FFFFD59A16D0FFFF4A
:100148004250406E416A4150000AD8A40ED0405037
:10015800000AD8B4F1D7010AD8B4EBD706D0FFFF0C
:10016800D58C19D0FFFFD59C16D0FFFF3C50406EB0
:10017800416A4150000AD8A40ED04050000AD8B4B1
:10018800EED7010AD8B4EED706D0FFFFD58819D02C
:10019800FFFFD59816D0FFFF3D50406E416A415091
:1001A800000AD8A40ED04050000AD8B4F1D7010AEA
:1001B800D8B4EBD706D0FFFFD58612D0FFFFD5966F
:1001C8000FD0FFFF3E50406E416A4150000AD8A44C
:1001D80007D04050000AD8B4EED7010AD8B4EED7F9
:1001E800FFFFD5503F18F80B3F18D56ED58E12007B
:1001F800FFFFFFFF220E416E000E426E44EC01F03D
:100208001B0E416E000E426E44EC01F0140E416E5E
:10021800000E426E44EC01F00D0E416E000E426E6F
:1002280044EC01F072EC01F0000E3C6E000E3D6EE5
:10023800000E3E6E000E3F6E010E9AEC00F0FFFFBE
:10024800D6CF81FFFCD7BC0EF66E020EF76E000EFD
:10025800F86E00EE01F010EE28F00900F5CFEEFF81
:10026800E550E150FAE100EE29F0130EEE6AE806D7
:10027800FDE143904392000EF86E0001FDEF00F09F
:10028800FFFF41C0D9FF42C0DAFFDF503C6E20EECD
:1002980001F04150D9264250DA22DF503D6E20EE5F
:1002A80002F04150D9264250DA22DF5016EC00F015
:1002B8001200FFFF950F830F930F810F920F800F8E
:1002C8004104010000000042020000000000420159
:1002D800000000000042000000000000FFFFF28E56
:1002E800F298F096F098F18CF18AF188F286F28A09
:0602F8001200FFFFFFFFF2
:020000040020DA
:08000000FFFFFFFFFFFFFFFF00
:020000040030CA
:0E000000FF210F0EFF0181FF0FC00FE00F4028
:00000001FF
