:020000040000FA
:0600000000F016EF00F015
:10000800FFFF7582F2B2F292F0B0F090F0B2F09287
:10001800F2B0F290F2B4F2949EB49E9475921100EC
:10002800FFFFFFFFA3EF02F0FFFF336EF00EBD16D8
:10003800B196B19C69D0FFFF94947BD0FFFF29C093
:1000480034F02AC035F02BC036F02CC037F00BD076
:10005800FFFF010E05D0FFFF040E02D0FFFF100EB8
:10006800FFFF446E12D0FFFF28502D6E2E6A2E50CF
:10007800000AD8A40AD02D50000AD8B4E9D7010A3A
:10008800D8B4E9D7030AD8B4E9D7FFFF29C01FF0CD
:100098002AC020F02BC021F02CC022F0000E1B6ECD
:1000A800090E1C6E3D0E1D6E000E1E6EFFEC01F05B
:1000B800030E06D0FFFFD8901E321D321C321B32B1
:1000C800FFFFE82EF7D71BC02FF01CC030F01DC073
:1000D80031F01EC032F02FC01BF030C01CF031C010
:1000E8001DF032C01EF044501F6E206A216A226A39
:1000F800FFEC01F01B04CB6E9494CA502818FC0B3B
:100108002818CA6ECA841BD0FFFF33502D6E2E6A82
:100118002E50000AD8A40DD02D50010AD8B48BD780
:10012800090AD8B488D7010AD8B485D7050AD8B43B
:1001380085D7FFFFBD503318F00B3318BD6EFFFF96
:100148001200FFFFFFFF056E6CD0FFFF0550D8B40B
:100158000FD002C003F0010E046E032A03D0FFFF84
:10016800D8900436FFFF032EFAD7045092126BD0B2
:10017800FFFF02C003F0010E046E032A03D0FFFF45
:10018800D8900436FFFF032EFAD70450FF0A9216C0
:100198005AD0FFFF0550D8B40FD002C003F0010EAB
:1001A800046E032A03D0FFFFD8900436FFFF032E06
:1001B800FAD70450931247D0FFFF02C003F0010E94
:1001C800046E032A03D0FFFFD8900436FFFF032EE6
:1001D800FAD70450FF0A931636D0FFFF0550D8B45B
:1001E8000FD002C003F0010E046E032A03D0FFFFF4
:1001F800D8900436FFFF032EFAD70450951223D067
:10020800FFFF02C003F0010E046E032A03D0FFFFB4
:10021800D8900436FFFF032EFAD70450FF0A95162C
:1002280012D0FFFF0150036E046A0450000AD8A4DC
:100238000AD00350410AD8B488D7030AD8B4A9D73A
:10024800060AD8B4CAD7FFFF1200FFFFFFFF000E4F
:10025800166E14AE0AD0141E131E121E116C000E58
:10026800122213221422010E166EFFFF10AE0AD0BE
:10027800101E0F1E0E1E0D6C000E0E220F221022D5
:10028800010E161AFFFF000E176E000E186E000EF4
:10029800196E000E1A6E1150121013101410D8B4E3
:1002A8002ED0010E156E07D0FFFFD89011361236EA
:1002B80013361436152AFFFF14AEF6D7FFFFD89071
:1002C8001736183619361A3611500D5C12500E585A
:1002D80013500F5814501058D8A009D011500D5E63
:1002E80012500E5A13500F5A1450105A1780FFFF0D
:1002F800D8901432133212321132152EDFD7FFFF85
:100308001650D8B408D01A1E191E181E176C000EE5
:10031800182219221A22FFFF17C00DF018C00EF07C
:1003280019C00FF01AC010F01200FFFFFFFF2D6E6A
:1003380034C01FF035C020F036C021F037C022F09D
:10034800640E116E000E126E000E136E000E146E07
:100358002D50016E026A036A046A000E056E090ECA
:10036800066E3D0E076E000E086E47EC02F001C0E7
:100378000DF002C00EF003C00FF004C010F02AEC1C
:1003880001F00DC01BF00EC01CF00FC01DF010C016
:100398001EF0FFEC01F01BC029F01CC02AF01DC0A4
:1003A8002BF01EC02CF029C01BF02AC01CF02BC05B
:1003B8001DF02CC01EF044501F6E206A216A226A6C
:1003C800FFEC01F01B502E6E2EB002D0BD9001D074
:1003D800BD802EC028F0D89028322846BD50281855
:1003E800FD0B2818BD6E2E40E8423F0BBE6EBD8443
:1003F800BD861200FFFFFFFF000E236E000E246E65
:10040800000E256E000E266E1F502010211022109F
:10041800D8B42ED0010E276E07D0FFFFD8901F3614
:10042800203621362236272AFFFF22AEF6D7FFFFD5
:10043800D89023362436253626361F501B5C20508C
:100448001C5821501D5822501E58D8A009D01F50A2
:100458001B5E20501C5A21501D5A22501E5A2380C0
:10046800FFFFD8902232213220321F32272EDFD7C9
:10047800FFFF23C01BF024C01CF025C01DF026C0C0
:100488001EF01200FFFFFFFF000E096E000E0A6E3D
:10049800000E0B6E000E0C6EFFFF01A008D0055079
:1004A800092606500A2207500B2208500C22FFFF8B
:1004B800D8900536063607360836D8900432033207
:1004C800023201320150021003100410D8A4E4D7FC
:1004D80009C001F00AC002F00BC003F00CC004F020
:1004E8001200FFFFFFFF5A0E066E000E076EC0ECEB
:1004F80002F0530E066E000E076EC0EC02F04C0EB2
:10050800066E000E076EC0EC02F0450E066E000E79
:10051800076EC0EC02F0F1EC02F0020E286EF40E49
:10052800296E010E2A6E000E2B6E000E2C6E0C0E1C
:1005380018EC00F0320E9AEC01F0FFFFFED7B40E73
:10054800F66E050EF76E000EF86E00EE34F010EE43
:100558002DF00900F5CFEEFFE550E150FAE100EE8D
:1005680061F0140EEE6AE806FDE175907592000ED2
:10057800F86E000176EF02F0FFFF06C0D9FF07C052
:10058800DAFFDF50016E20EE01F00650D926075041
:10059800DA22DF50026E20EE02F00650D92607500C
:1005A800DA22DF50A6EC00F01200FFFF20A10700BE
:1005B800950F830F930F810F920F800F0141040154
:1005C800000000004202000000000042010000009C
:0905D800000042000000000000D8
:1005E200FFFFF28EF298F096F098F18CF18AF18882
:0A05F200F286F28A1200FFFFFFFFFD
:020000040020DA
:08000000FFFFFFFFFFFFFFFF00
:020000040030CA
:0E000000FF210F0EFF0181FF0FC00FE00F4028
:00000001FF
