:020000040000FA
:0600000000F016EF00F015
:10000800FFFF5E82F2B2F292F0B0F090F0B2F0929E
:10001800F2B0F290F2B4F2949EB49E945E92110003
:10002800FFFFFFFF83EF02F0FFFF516E90D0FFFF4D
:100038005150D8B40FD04EC04FF0010E506E4F2A19
:1000480003D0FFFFD8905036FFFF4F2EFAD75050FD
:10005800921292D0FFFF4EC04FF0010E506E4F2A01
:1000680003D0FFFFD8905036FFFF4F2EFAD75050DD
:10007800FF0A921681D0FFFF5150D8B40FD04EC05E
:100088004FF0010E506E4F2A03D0FFFFD890503624
:10009800FFFF4F2EFAD7505093126ED0FFFF4EC07D
:1000A8004FF0010E506E4F2A03D0FFFFD890503604
:1000B800FFFF4F2EFAD75050FF0A93165DD0FFFF6F
:1000C8005150D8B40FD04EC04FF0010E506E4F2A89
:1000D80003D0FFFFD8905036FFFF4F2EFAD750506D
:1000E80094124AD0FFFF4EC04FF0010E506E4F2AB7
:1000F80003D0FFFFD8905036FFFF4F2EFAD750504D
:10010800FF0A941639D0FFFF5150D8B40FD04EC013
:100118004FF0010E506E4F2A03D0FFFFD890503693
:10012800FFFF4F2EFAD75050951226D0FFFF4EC032
:100138004FF0010E506E4F2A03D0FFFFD890503673
:10014800FFFF4F2EFAD75050FF0A951615D0FFFF24
:100158004D504F6E506A5050000AD8A40DD04F50E1
:10016800410AD8B464D7030AD8B485D7010AD8B4E9
:10017800A6D7070AD8B4C7D7FFFF1200FFFFFFFFB3
:1001880054C056F055C057F0000E586EFFFF590E78
:100198005824D96EDA6A000EDA2256C04DF057C0DC
:1001A8004EF0000E506E0A0E4F6E5BEC02F04D5092
:1001B800DF6E56C04DF057C04EF0000E506E0A0E5E
:1001C8004F6E2BEC02F04DC056F04EC057F0582A37
:1001D800040E5864DBD75D50D8A441D05C50D8A435
:1001E8002CD05B50D8A41BD05A50D8A40ED059504C
:1001F800D8A405D05950300F08EC03F045D0FFFFC4
:100208005950300F08EC03F03FD0FFFF5A50300F21
:1002180008EC03F05950300F08EC03F035D0FFFF1D
:100228005B50300F08EC03F05A50300F08EC03F025
:100238005950300F08EC03F027D0FFFF5C50300F07
:1002480008EC03F05B50300F08EC03F05A50300F05
:1002580008EC03F05950300F08EC03F015D0FFFFFD
:100268005D50300F08EC03F05C50300F08EC03F0E1
:100278005B50300F08EC03F05A50300F08EC03F0D5
:100288005950300F08EC03F0FFFF1200FFFFFFFF8B
:10029800000E566E54AE0AD0541E531E521E516C98
:1002A800000E522253225422010E566EFFFF50AE0A
:1002B8000AD0501E4F1E4E1E4D6C000E4E224F226D
:1002C8005022010E561AFFFF000E576E000E586E90
:1002D800000E596E000E5A6E5150521053105410A1
:1002E800D8B42ED0010E556E07D0FFFFD8905136E6
:1002F800523653365436552AFFFF54AEF6D7FFFF11
:10030800D8905736583659365A3651504D5C525057
:100318004E5853504F5854505058D8A009D05150A7
:100328004D5E52504E5A53504F5A5450505A57805F
:10033800FFFFD8905432533252325132552EDFD704
:10034800FFFF5650D8B408D05A1E591E581E576C75
:10035800000E582259225A22FFFF57C04DF058C0AC
:100368004EF059C04FF05AC050F01200FFFFFFFF87
:10037800536E53C04FF04F464F464F46C2504F182A
:10038800C70B4F18C26E53C04FF0010E506E4F2A64
:1003980003D0FFFFD8905036FFFF4F2EFAD75050AA
:1003A8009212020E4F6EF20EFFFFE82EFDD74F2E6F
:1003B800FBD700D0C284FFFF9EACFDD7C350C4CF8B
:1003C8004FF0506A4FC050F04F6A4F10516E505066
:1003D800526E9E9C51C04DF052C04EF01200FFFF6D
:1003E800FFFF320E526E000E536ED6EC02F02B0E4B
:1003F800526E000E536ED6EC02F0240E526E000EB2
:10040800536ED6EC02F01D0E526E000E536ED6ECF3
:1004180002F0160E526E000E536ED6EC02F0F0EC9F
:1004280002F0FCEC02F0250E5C6E800E5B6EBCECFC
:1004380002F0FFFF000EBBEC01F04DC054F04EC0BF
:1004480055F0C3EC00F0200E08EC03F0F2D7FFFFE4
:10045800000E526E000E516E4F505010D8B420D07E
:10046800010E536E05D0FFFFD8904F365036532AF1
:10047800FFFF50AEF8D7FFFFD890513652364F5095
:100488004D5C50504E58D8A005D04F504D5E50503E
:100498004E5A5180FFFFD89050324F32532EEBD72F
:1004A800FFFF51C04DF052C04EF01200FFFFFFFF9A
:1004B8004F505010D8B41CD0010E516E05D0FFFF1C
:1004C800D8904F365036512AFFFF50AEF8D7FFFF6D
:1004D8004F504D5C50504E58D8A004D04F504D5EF0
:1004E80050504E5AFFFFD89050324F32512EEFD70E
:1004F800FFFF4DC04DF04EC04EF01200FFFF400E02
:10050800F66E050EF76E000EF86E00EE01F010EEB6
:1005180038F00900F5CFEEFFE550E150FAE100EEC2
:1005280039F0140EEE6AE806FDE15E905E92000E68
:10053800F86E0001F4EF01F020A10700950F830F7A
:10054800940F820F930F810F920F800F01410401C6
:10055800000000004302000000000042020000000A
:1005680000004201000000000042000000000000FE
:10057800FFFFAC84900E4D6ED00E4E6E030E4F6E84
:10058800000E506E5BC051F05CC052F0536A546A62
:100598004BEC01F04D04AF6EAC98AB8E949CAC8ADA
:1005A8001200FFFFFFFF52C0D9FF53C0DAFFDF5030
:1005B8004D6E20EE01F05250D9265350DA22DF500A
:1005C8004E6E20EE02F05250D9265350DA22DF50F8
:1005D80018EC00F01200FFFFFFFFF28EF298F09681
:1005E800F098F18CF18AF188F286F28A1200FFFF06
:1005F800FFFFF00EC116C18EC2503F0B4009C26EFC
:10060800C19CC2801200FFFFFFFF4D6EFFFF9EA836
:0C061800FDD74DC0ADFF1200FFFFFFFF3B
:020000040020DA
:08000000FFFFFFFFFFFFFFFF00
:020000040030CA
:0E000000FF210F0EFF0181FF0FC00FE00F4028
:00000001FF
