:020000040000FA
:0600000000F0C6EF1EF047
:103CCC00FFFF930F810F920F800F42010100000044
:103CDC000042000000000000FFFF20EE01F0235026
:103CEC00D9262450DA22DF501F6E23C0D9FF24C0FE
:103CFC00DAFFDF5007EC1FF01200FFFFFFFF24C0BC
:103D0C00D9FF25C0DAFFDF501F6E20EE01F02450E2
:103D1C00D9262550DA22DF50206E000EA3EC1FF0BE
:103D2C001200FFFFFFFF24C0D9FF25C0DAFFDF50D0
:103D3C001F6E20EE01F02450D9262550DA22DF50D8
:103D4C00206E010EA3EC1FF01200FFFFFFFF24C03A
:103D5C00D9FF25C0DAFFDF501F6E20EE01F0245092
:103D6C00D9262550DA22DF50206E20EE02F02450A6
:103D7C00D9262550DA22DF5046EC1FF01200FFFF47
:103D8C00CE0EF66E3C0EF76E000EF86E00EE01F0E5
:103D9C0010EE16F00900F5CFEEFFE550E150FAE118
:103DAC0000EE17F0080EEE6AE806FDE1000EF86E64
:103DBC000001E1EF1EF0FFFF100E246E000E256EC9
:103DCC00ACEC1EF0090E246E000E256EACEC1EF051
:103DDC00FFFF090E236E000E246E72EC1EF000091C
:103DEC00D8B407D0100E246E000E256E98EC1EF081
:103DFC00EFD7FFFF100E246E000E256E84EC1EF024
:103E0C00E7D7FFFF226E27D0FFFF1FC020F0010E67
:103E1C00216E202A03D0FFFFD8902136FFFF202EE1
:103E2C00FAD72150801412D0FFFF010E25D0FFFFCE
:103E3C001FC020F0010E216E202A03D0FFFFD89066
:103E4C002136FFFF202EFAD721508114FFFF0009E5
:103E5C00D8A4EAD70FD0FFFF2250206E216A215040
:103E6C00000AD8A407D02050410AD8B4CDD7030AF1
:103E7C00D8B4DDD7FFFF000EFFFF1200FFFFFFFFDE
:103E8C00FFFF236E48D0FFFF2350D8B40FD020C0C3
:103E9C0021F0010E226E212A03D0FFFFD89022368A
:103EAC00FFFF212EFAD72250921244D0FFFF20C0E0
:103EBC0021F0010E226E212A03D0FFFFD89022366A
:103ECC00FFFF212EFAD72250FF0A921633D0FFFFA4
:103EDC002350D8B40FD020C021F0010E226E212A1D
:103EEC0003D0FFFFD8902236FFFF212EFAD72250A5
:103EFC00931220D0FFFF20C021F0010E226E212A48
:103F0C0003D0FFFFD8902236FFFF212EFAD7225084
:103F1C00FF0A93160FD0FFFF1F50216E226A22500A
:103F2C00000AD8A407D02150410AD8B4ACD7030A50
:103F3C00D8B4CDD7FFFF1200FFFFFFFF236E48D090
:103F4C00FFFF2350D8B40FD020C021F0010E226EF9
:103F5C00212A03D0FFFFD8902236FFFF212EFAD75B
:103F6C002250801244D0FFFF20C021F0010E226E9F
:103F7C00212A03D0FFFFD8902236FFFF212EFAD73B
:103F8C002250FF0A801633D0FFFF2350D8B40FD035
:103F9C0020C021F0010E226E212A03D0FFFFD89001
:103FAC002236FFFF212EFAD72250811220D0FFFF9C
:103FBC0020C021F0010E226E212A03D0FFFFD890E1
:103FCC002236FFFF212EFAD72250FF0A81160FD07E
:103FDC00FFFF1F50216E226A2250000AD8A407D07E
:103FEC002150410AD8B4ACD7030AD8B4CDD7FFFFBF
:043FFC001200FFFFB1
:020000040020DA
:08000000FFFFFFFFFFFFFFFF00
:020000040030CA
:0E000000FF210F0EFF0181FF0FC00FE00F4028
:00000001FF
