:020000040000FA
:0600000000F016EF00F015
:10000800FFFF5E82F2B2F292F0B0F090F0B2F0929E
:10001800F2B0F290F2B4F2949EB49E945E92110003
:10002800FFFFFFFF46EF02F0FFFF516E90D0FFFF8A
:100038005150D8B40FD04EC04FF0010E506E4F2A19
:1000480003D0FFFFD8905036FFFF4F2EFAD75050FD
:10005800921292D0FFFF4EC04FF0010E506E4F2A01
:1000680003D0FFFFD8905036FFFF4F2EFAD75050DD
:10007800FF0A921681D0FFFF5150D8B40FD04EC05E
:100088004FF0010E506E4F2A03D0FFFFD890503624
:10009800FFFF4F2EFAD7505093126ED0FFFF4EC07D
:1000A8004FF0010E506E4F2A03D0FFFFD890503604
:1000B800FFFF4F2EFAD75050FF0A93165DD0FFFF6F
:1000C8005150D8B40FD04EC04FF0010E506E4F2A89
:1000D80003D0FFFFD8905036FFFF4F2EFAD750506D
:1000E80094124AD0FFFF4EC04FF0010E506E4F2AB7
:1000F80003D0FFFFD8905036FFFF4F2EFAD750504D
:10010800FF0A941639D0FFFF5150D8B40FD04EC013
:100118004FF0010E506E4F2A03D0FFFFD890503693
:10012800FFFF4F2EFAD75050951226D0FFFF4EC032
:100138004FF0010E506E4F2A03D0FFFFD890503673
:10014800FFFF4F2EFAD75050FF0A951615D0FFFF24
:100158004D504F6E506A5050000AD8A40DD04F50E1
:10016800410AD8B464D7030AD8B485D7010AD8B4E9
:10017800A6D7070AD8B4C7D7FFFF1200FFFFFFFFB3
:10018800000E566E54AE0AD0541E531E521E516CA9
:10019800000E522253225422010E566EFFFF50AE1B
:1001A8000AD0501E4F1E4E1E4D6C000E4E224F227E
:1001B8005022010E561AFFFF000E576E000E586EA1
:1001C800000E596E000E5A6E5150521053105410B2
:1001D800D8B42ED0010E556E07D0FFFFD8905136F7
:1001E800523653365436552AFFFF54AEF6D7FFFF22
:1001F800D8905736583659365A3651504D5C525069
:100208004E5853504F5854505058D8A009D05150B8
:100218004D5E52504E5A53504F5A5450505A578070
:10022800FFFFD8905432533252325132552EDFD715
:10023800FFFF5650D8B408D05A1E591E581E576C86
:10024800000E582259225A22FFFF57C04DF058C0BD
:100258004EF059C04FF05AC050F01200FFFFFFFF98
:10026800556E55C056F0000E5A6EFFFF570E5A24B1
:10027800D96EDA6A000EDA2256C04DF04E6A000EC8
:10028800506E0A0E4F6ECBEC01F04D50DF6E56C02B
:100298004DF04E6A000E506E0A0E4F6E7FEC01F064
:1002A8004D50566E5A2A020E5A64DFD75950D8A4B8
:1002B80012D05850D8A405D05750300FCDEC02F0CA
:1002C80017D0FFFF5850300FCDEC02F05750300FC9
:1002D800CDEC02F00DD0FFFF5950300FCDEC02F0FD
:1002E8005850300FCDEC02F05750300FCDEC02F0E3
:1002F800FFFF1200FFFFFFFF000E526E50AE06D048
:100308004F6C501ED8B0502A010E526EFFFF4EAEF1
:1003180006D04D6C4E1ED8B04E2A010E521AFFFF61
:10032800000E546E000E536E4F505010D8B420D0AB
:10033800010E516E05D0FFFFD8904F365036512A26
:10034800FFFF50AEF8D7FFFFD890533654364F50C2
:100358004D5C50504E58D8A005D04F504D5E50506F
:100368004E5A5380FFFFD89050324F32512EEBD760
:10037800FFFF5250D8B404D0536C541ED8B0542A3E
:10038800FFFF53C04DF054C04EF01200FFFFFFFFB7
:10039800000E526E4EAE06D04D6C4E1ED8B04E2A90
:1003A800010E526EFFFF50AE04D04F6C501ED8B0F5
:1003B800502AFFFF4F505010D8B41CD0010E516E78
:1003C80005D0FFFFD8904F365036512AFFFF50AE68
:1003D800F8D7FFFF4F504D5C50504E58D8A004D06E
:1003E8004F504D5E50504E5AFFFFD89050324F320A
:1003F800512EEFD7FFFF5250D8B404D04D6C4E1E8B
:10040800D8B04E2AFFFF4DC04DF04EC04EF012003E
:10041800FFFFFFFF320E526E000E536E99EC02F092
:100428002B0E526E000E536E99EC02F0240E526E93
:10043800000E536E99EC02F01D0E526E000E536EB4
:1004480099EC02F0160E526E000E536E99EC02F003
:10045800C1EC02F0B3EC02F0250E5C6E800E5B6E10
:100468007FEC02F0FFFFFE0E33EC01F0200ECDEC26
:1004780002F0050E5D6EDF0EFFFFE82EFDD75D2E44
:10048800FBD7F0D7C60EF66E040EF76E000EF86EA8
:1004980000EE01F010EE38F00900F5CFEEFFE55060
:1004A800E150FAE100EE39F0140EEE6AE806FDE1DB
:1004B8005E905E92000EF86E00010DEF02F020A132
:1004C8000700950F830F940F820F930F810F920FE0
:1004D800800F0141040100000000430200000000F9
:1004E800004202000000000042010000000000423B
:1004F800000000000000FFFFAC84900E4D6ED00E8F
:100508004E6E030E4F6E000E506E5BC051F05CC015
:1005180052F0536A546AC3EC00F04D04AF6EAC98C5
:10052800AB8E949CAC8A1200FFFFFFFF52C0D9FF2C
:1005380053C0DAFFDF504D6E20EE01F05250D9263D
:100548005350DA22DF504E6E20EE02F05250D92678
:100558005350DA22DF5018EC00F01200FFFFFFFFC3
:10056800C150F00B0909C16EC19EC2503F0B400932
:10057800C26EC19CC2801200FFFFFFFFF28EF2988C
:10058800F096F098F18CF18AF188F286F28A1200DE
:10059800FFFFFFFF4D6EFFFF9EA8FDD74DC0ADFFCB
:0605A8001200FFFFFFFF3F
:020000040020DA
:08000000FFFFFFFFFFFFFFFF00
:020000040030CA
:0E000000FF210F0EFF0181FF0FC00FE00F4028
:00000001FF
