:020000040000FA
:0600000000F032EF00F0F9
:10000800FFFF3882FACF1DF0FBCF1EF0D9CF1FF0CB
:10001800DACF20F0F2B2F292F0B0F090F0B2F092B3
:10002800F2A010D001D80CD0FFFF0500FA6E3050B6
:10003800FD6E3150FE6EF850FF6EFA501200FFFF51
:10004800FFFFF290FFFF20C0DAFF1FC0D9FF1EC0DC
:10005800FBFF1DC0FAFF38921100FFFFCEEF00F042
:10006800FFFF256E48D0FFFF2550D8B40FD022C01F
:1000780023F0010E246E232A03D0FFFFD8902436E4
:10008800FFFF232EFAD72450921244D0FFFF22C03C
:1000980023F0010E246E232A03D0FFFFD8902436C4
:1000A800FFFF232EFAD72450FF0A921633D0FFFF02
:1000B8002550D8B40FD022C023F0010E246E232A75
:1000C80003D0FFFFD8902436FFFF232EFAD7245001
:1000D800931220D0FFFF22C023F0010E246E232AA2
:1000E80003D0FFFFD8902436FFFF232EFAD72450E1
:1000F800FF0A93160FD0FFFF2150236E246A245065
:10010800000AD8A407D02350410AD8B4ACD7030AB0
:10011800D8B4CDD7FFFF1200FFFFFFFF1A6E27D01C
:10012800FFFF17C018F0010E196E182A03D0FFFF41
:10013800D8901936FFFF182EFAD707C0D9FF08C084
:10014800DAFF1950DF1AFFFF17C018F0010E196EF9
:10015800182A03D0FFFFD8901936FFFF182EFAD7B8
:1001680003C0D9FF04C0DAFF1950DF1A0FD0FFFF10
:100178001A50186E196A1950000AD8A407D01850D6
:10018800410AD8B4CDD7030AD8B4DDD7FFFF12008F
:10019800FFFFFFFF5C0EF66E020EF76E000EF86EA4
:1001A80000EE01F010EE16F00900F5CFEEFFE55075
:1001B800E150FAE100EE28F0100EEE6AE806FDE1E3
:1001C80038903892000EF86E000105EF01F0FFFF3D
:1001D80026C0D9FF27C0DAFFDF50216E20EE01F0DC
:1001E8002650D9262750DA22DF50226E20EE02F060
:1001F8002650D9262750DA22DF5034EC00F01200BE
:10020800FFFFFFFF100E266E000E276EEBEC00F0CE
:10021800090E266E000E276EEBEC00F039EC01F0AB
:10022800880E216E020E226E4DEC01F0FFFFFED704
:10023800FFFF20EE01F01B50D9261C50DA22DF50B8
:10024800176E1BC0D9FF1CC0DAFFDF5091EC00F01D
:100258001200FFFF930F810F920F800F42010100E0
:1002680000000042000000000000FFFFF28EF2983C
:10027800F086F098F18CF18AF188F2861200FFFF7F
:10028800FFFF100E1B6E000E1C6E1CEC01F012001E
:10029800FFFFFFFF21C030F022C031F01200FFFF46
:0202A800FFFF56
:020000040020DA
:08000000FFFFFFFFFFFFFFFF00
:020000040030CA
:0E000000FF210F0EFF0181FF0FC00FE00F4028
:00000001FF
