:020000040000FA
:0600000000F030EF00F0FB
:10000800FFFF3682FACF1DF0FBCF1EF0D9CF1FF0CD
:10001800DACF20F0F2B2F292F0A010D001D80CD0D2
:10002800FFFF0500FA6E3250FD6E3350FE6EF85039
:10003800FF6EFA501200FFFFFFFFF090FFFFF0B2D3
:10004800F09220C0DAFF1FC0D9FF1EC0FBFF1DC001
:10005800FAFF36921100FFFFCCEF00F0FFFF256E8C
:1000680048D0FFFF2550D8B40FD022C023F0010E8E
:10007800246E232A03D0FFFFD8902436FFFF232EB7
:10008800FAD72450921244D0FFFF22C023F0010E69
:10009800246E232A03D0FFFFD8902436FFFF232E97
:1000A800FAD72450FF0A921633D0FFFF2550D8B450
:1000B8000FD022C023F0010E246E232A03D0FFFFA5
:1000C800D8902436FFFF232EFAD72450931220D03D
:1000D800FFFF22C023F0010E246E232A03D0FFFF66
:1000E800D8902436FFFF232EFAD72450FF0A931600
:1000F8000FD0FFFF2150236E246A2450000AD8A491
:1001080007D02350410AD8B4ACD7030AD8B4CDD706
:10011800FFFF1200FFFFFFFF1A6E27D0FFFF17C077
:1001280018F0010E196E182A03D0FFFFD89019365F
:10013800FFFF182EFAD707C0D9FF08C0DAFF1950F9
:10014800DF1AFFFF17C018F0010E196E182A03D026
:10015800FFFFD8901936FFFF182EFAD703C0D9FF32
:1001680004C0DAFF1950DF1A0FD0FFFF1A50186EBB
:10017800196A1950000AD8A407D01850410AD8B4EF
:10018800CDD7030AD8B4DDD7FFFF1200FFFFFFFF6A
:10019800580EF66E020EF76E000EF86E00EE01F0C5
:1001A80010EE16F00900F5CFEEFFE550E150FAE148
:1001B80000EE28F00E0EEE6AE806FDE13690369263
:1001C800000EF86E000103EF01F0FFFF26C0D9FF13
:1001D80027C0DAFFDF50216E20EE01F02650D92625
:1001E8002750DA22DF50226E20EE02F02650D92660
:1001F8002750DA22DF5032EC00F01200FFFFFFFF39
:10020800100E266E000E276EE9EC00F0090E266E21
:10021800000E276EE9EC00F037EC01F0820E216E3B
:10022800020E226E4AEC01F0FFFFFED7FFFF20EE20
:1002380001F01B50D9261C50DA22DF50176E1BC064
:10024800D9FF1CC0DAFFDF508FEC00F01200FFFF6F
:10025800930F810F920F800F4201010000000042AE
:10026800000000000000FFFFF28EF298F086F09880
:10027800F18CF18AF1881200FFFFFFFF100E1B6E50
:10028800000E1C6E1AEC01F01200FFFFFFFF21C0E8
:0C02980032F022C033F01200FFFFFFFF25
:020000040020DA
:08000000FFFFFFFFFFFFFFFF00
:020000040030CA
:0E000000FF210F0EFF0181FF0FC00FE00F4028
:00000001FF
